SATCODX103Astra 1 (19.2E)   TMPG20113030001ORF1 HD 0192___     ______220000____________049110000101007_____________            
SATCODX103Astra 1 (19.2E)   TMPG20112730001ORF2O HD0192___     ______220000____________133040000101005_____________            
SATCODX103Astra 1 (19.2E)   TMPG20112440001ATV HD  0192___     ______220000____________132280000101003_____________            
SATCODX103Astra 1 (19.2E)   TMPG20120510000PULS 4 A0192___     ______275000____________200070000101082_____________ustria      
SATCODX103Astra 1 (19.2E)   TMPG20120510000ProSiebe0192___     ______275000____________200020000101082_____________n Austria   
SATCODX103Astra 1 (19.2E)   TMPG20120510000SAT.1 A 0192___     ______275000____________200050000101082_____________            
SATCODX103Astra 1 (19.2E)   TMPG20120510000Kabel 1 0192___     ______275000____________200040000101082_____________Austria     
SATCODX103Astra 1 (19.2E)   TMPG20126630001sixx Aus0192___     ______220000____________131060000101115_____________tria        
SATCODX103Astra 1 (19.2E)   TMPG20116710001Pro7 MAX0192___     ______220000____________053110000101031_____________X Austria   
SATCODX103Astra 1 (19.2E)   TMPG20116710001SAT.1 Go0192___     ______220000____________053100000101031_____________ld Österreic
SATCODX103Astra 1 (19.2E)   TMPG20116710001kabel1 D0192___     ______220000____________053120000101031_____________oku austria 
SATCODX103Astra 1 (19.2E)   TMPG20112440001ATV2    0192___     ______220000____________132230000101003_____________            
SATCODX103Astra 1 (19.2E)   TMPG20114940001Das Erst0192___     ______220000____________103010000101019_____________e HD        
SATCODX103Astra 1 (19.2E)   TMPG20113620001ZDF HD  0192___     ______220000____________111100000101011_____________            
SATCODX103Astra 1 (19.2E)   TMPG20122260001RTL Aust0192___     ______275000____________288000000101091_____________ria         
SATCODX103Astra 1 (19.2E)   TMPG20122260001RTL2 Aus0192___     ______275000____________288100000101091_____________tria        
SATCODX103Astra 1 (19.2E)   TMPG20122260001VOX Aust0192___     ______275000____________288050000101091_____________ria         
SATCODX103Astra 1 (19.2E)   TMPG201134700003sat HD 0192___     ______220000____________111500000101010_____________            
SATCODX103Astra 1 (19.2E)   TMPG20112730001ORF III 0192___     ______220000____________133080000101005_____________HD          
SATCODX103Astra 1 (19.2E)   TMPG20114940001arte HD 0192___     ______220000____________103020000101019_____________            
SATCODX103Astra 1 (19.2E)   TMPG20126630001ServusTV0192___     ______220000____________131110000101115_____________ Oesterreich
SATCODX103Astra 1 (19.2E)   TMPG20113620001zdf_neo 0192___     ______220000____________111300000101011_____________HD          
SATCODX103Astra 1 (19.2E)   TMPG20124800000TELE 5  0192___     ______275000____________000510013300033_____________            
SATCODX103Astra 1 (19.2E)   TMPG20126630001NITRO Au0192___     ______220000____________131020000101115_____________stria       
SATCODX103Astra 1 (19.2E)   TMPG20112440001RTLplus 0192___     ______220000____________132290000101003_____________Austria     
SATCODX103Astra 1 (19.2E)   TMPG20126920001RiC     0192___     ______220000____________130190000101117_____________            
SATCODX103Astra 1 (19.2E)   TMPG20119730000NICK/MTV0192___     ______275000____________286800000101078_____________+           
SATCODX103Astra 1 (19.2E)   TMPG20124600001Disney C0192___     ______275000____________017930013300005_____________hannel      
SATCODX103Astra 1 (19.2E)   TMPG20113470000KiKA HD 0192___     ______220000____________111600000101010_____________            
SATCODX103Astra 1 (19.2E)   TMPG20122260001SUPER RT0192___     ______275000____________288150000101091_____________L A         
SATCODX103Astra 1 (19.2E)   TMPG20124800000SPORT1  0192___     ______275000____________009000013300033_____________            
SATCODX103Astra 1 (19.2E)   TMPG20122260001Eurospor0192___     ______275000____________312000000101091_____________t 1 Deutschl
SATCODX103Astra 1 (19.2E)   TMPG20112730001ORF SPOR0192___     ______220000____________133090000101005_____________T+ HD       
SATCODX103Astra 1 (19.2E)   TMPG20125450001WELT    0192___     ______220000____________175030000101107_____________            
SATCODX103Astra 1 (19.2E)   TMPG20126920001n-tv Aus0192___     ______220000____________130210000101117_____________tria        
SATCODX103Astra 1 (19.2E)   TMPG20115820001phoenix 0192___     ______220000____________103310000101025_____________HD          
SATCODX103Astra 1 (19.2E)   TMPG20110530001tagessch0192___     ______220000____________103750000101039_____________au24 HD     
SATCODX103Astra 1 (19.2E)   TMPG20123040001Sky Spor0192___     ______275000____________001080013300012_____________t News HD   
SATCODX103Astra 1 (19.2E)   TMPG201266300014MEDIATH0192___     ______220000____________131120000101115_____________EK          
SATCODX103Astra 1 (19.2E)   TMPG20115820001BR Ferns0192___     ______220000____________103250000101025_____________ehen Süd HD 
SATCODX103Astra 1 (19.2E)   TMPG20108910001MDR Sach0192___     ______220000____________103520000101061_____________sen HD      
SATCODX103Astra 1 (19.2E)   TMPG20108910001rbb Berl0192___     ______220000____________103510000101061_____________in HD       
SATCODX103Astra 1 (19.2E)   TMPG20115820001NDR FS N0192___     ______220000____________103270000101025_____________DS HD       
SATCODX103Astra 1 (19.2E)   TMPG20124220001WDR HD K0192___     ______275000____________283250000101201_____________öln         
SATCODX103Astra 1 (19.2E)   TMPG20108910001hr-ferns0192___     ______220000____________103550000101061_____________ehen HD     
SATCODX103Astra 1 (19.2E)   TMPG20114940001SWR BW H0192___     ______220000____________103030000101019_____________D           
SATCODX103Astra 1 (19.2E)   TMPG20110530001ONE HD  0192___     ______220000____________103760000101039_____________            
SATCODX103Astra 1 (19.2E)   TMPG20122660001ARD-alph0192___     ______275000____________284870000101093_____________a           
SATCODX103Astra 1 (19.2E)   TMPG20113470000ZDFinfo 0192___     ______220000____________111700000101010_____________HD          
SATCODX103Astra 1 (19.2E)   TMPG20126630001LT1-OOE 0192___     ______220000____________131040000101115_____________            
SATCODX103Astra 1 (19.2E)   TMPG20112440001Schau TV0192___     ______220000____________132250000101003_____________ HD         
SATCODX103Astra 1 (19.2E)   TMPG20124800000DMAX    0192___     ______275000____________000630013300033_____________            
SATCODX103Astra 1 (19.2E)   TMPG20126630001Welt der0192___     ______220000____________131030000101115_____________ Wunder     
SATCODX103Astra 1 (19.2E)   TMPG20124600001TLC     0192___     ______275000____________007720013300005_____________            
SATCODX103Astra 1 (19.2E)   TMPG20107730001ANIXE HD0192___     ______220000____________211000000101053_____________            
SATCODX103Astra 1 (19.2E)   TMPG20119730000Comedy C0192___     ______275000____________286760000101078_____________entral      
SATCODX103Astra 1 (19.2E)   TMPG20112730001gotv neu0192___     ______220000____________133160000101005_____________            
SATCODX103Astra 1 (19.2E)   TMPG20121480001DELUXE M0192___     ______275000____________000650013300007_____________USIC        
SATCODX103Astra 1 (19.2E)   TMPG20119730000MTV     0192___     ______275000____________286780000101078_____________            
SATCODX103Astra 1 (19.2E)   TMPG20126920001Folx TV 0192___     ______220000____________130180000101117_____________            
SATCODX103Astra 1 (19.2E)   TMPG20112440001Volksmus0192___     ______220000____________132220000101003_____________ik          
SATCODX103Astra 1 (19.2E)   TMPG20126920001HITRADIO0192___     ______220000____________130130000101117_____________ OE3        
SATCODX103Astra 1 (19.2E)   TMPG20116270000CNN Int.0192___     ______220000____________044220000101028_____________            
SATCODX103Astra 1 (19.2E)   TMPG20112290000BBC Worl0192___     ______220000____________050010000101002_____________d News Europ
SATCODX103Astra 1 (19.2E)   TMPG20122260001EURONEWS0192___     ______275000____________312300000101091_____________ GERMAN SD  
SATCODX103Astra 1 (19.2E)   TMPG20126040001Sky News0192___     ______220000____________072900000101111_____________ Intl       
SATCODX103Astra 1 (19.2E)   TMPG20115380000TV5MONDE0192___     ______220000____________069150000101022_____________ EUROPE     
SATCODX103Astra 1 (19.2E)   TMPG20116710001PULS 4 H0192___     ______220000____________053030000101031_____________D Austria   
SATCODX103Astra 1 (19.2E)   TMPG20116710001ProSiebe0192___     ______220000____________053010000101031_____________n HD Austria
SATCODX103Astra 1 (19.2E)   TMPG20116710001SAT.1 HD0192___     ______220000____________053000000101031_____________ Austria    
SATCODX103Astra 1 (19.2E)   TMPG20114640001kabel ei0192___     ______220000____________613220000101017_____________ns HD Austri
SATCODX103Astra 1 (19.2E)   TMPG20110820001RTL HD A0192___     ______220000____________119110000101041_____________ustria      
SATCODX103Astra 1 (19.2E)   TMPG20110820001RTL II H0192___     ______220000____________119410000101041_____________D Austria   
SATCODX103Astra 1 (19.2E)   TMPG20110820001VOX HD A0192___     ______220000____________119210000101041_____________ustria      
SATCODX103Astra 1 (19.2E)   TMPG20125740001TELE 5 H0192___     ______220000____________054210000101109_____________D Austria   
SATCODX103Astra 1 (19.2E)   TMPG20107730001Comedy C0192___     ______220000____________211170000101053_____________entral HD AT
SATCODX103Astra 1 (19.2E)   TMPG20108030001Disney C0192___     ______220000____________055100000101055_____________hannel HD Au
SATCODX103Astra 1 (19.2E)   TMPG20107730001WELT HD 0192___     ______220000____________211180000101053_____________            
SATCODX103Astra 1 (19.2E)   TMPG20108320001n-tv HD 0192___     ______220000____________612040000101057_____________            
SATCODX103Astra 1 (19.2E)   TMPG20125740001DMAX HD 0192___     ______220000____________054220000101109_____________Austria     
SATCODX103Astra 1 (19.2E)   TMPG20108030001Deluxe M0192___     ______220000____________055130000101055_____________usic HD Aust
SATCODX103Astra 1 (19.2E)   TMPG20109640001MTV HD A0192___     ______220000____________101130000101033_____________ustria      
SATCODX103Astra 1 (19.2E)   TMPG20111120001Eurospor0192___     ______220000____________125220000101043_____________t 1 HD Austr
SATCODX103Astra 1 (19.2E)   TMPG20109640001TLC HD A0192___     ______220000____________101100000101033_____________ustria      
SATCODX103Astra 1 (19.2E)   TMPG20114640001sixx HD 0192___     ______220000____________613230000101017_____________Austria     
SATCODX103Astra 1 (19.2E)   TMPG20114640001Pro7 MAX0192___     ______220000____________613240000101017_____________X HD Austria
SATCODX103Astra 1 (19.2E)   TMPG20111120001SAT.1 Go0192___     ______220000____________125200000101043_____________ld HD Austri
SATCODX103Astra 1 (19.2E)   TMPG20112290000INSIGHT 0192___     ______220000____________050110000101002_____________TV HD INT   
SATCODX103Astra 1 (19.2E)   TMPG20116710001SAT.1 em0192___     ______220000____________053130000101031_____________otions      
SATCODX103Astra 1 (19.2E)   TMPG20116710001kabel ei0192___     ______220000____________053140000101031_____________ns classics 
SATCODX103Astra 1 (19.2E)   TMPG20119730000MTV Musi0192___     ______275000____________286710000101078_____________c 24        
SATCODX103Astra 1 (19.2E)   TMPG20119730000MTV Danc0192___     ______275000____________286550000101078_____________e           
SATCODX103Astra 1 (19.2E)   TMPG20119730000MTV ROCK0192___     ______275000____________286590000101078_____________S           
SATCODX103Astra 1 (19.2E)   TMPG20119730000MTV Hits0192___     ______275000____________286540000101078_____________            
SATCODX103Astra 1 (19.2E)   TMPG20119730000VH1     0192___     ______275000____________286560000101078_____________            
SATCODX103Astra 1 (19.2E)   TMPG20119730000VH1 Clas0192___     ______275000____________286570000101078_____________sic         
SATCODX103Astra 1 (19.2E)   TMPG20118170000MEZZO   0192___     ______297000____________080100000101070_____________            
SATCODX103Astra 1 (19.2E)   TMPG20116560000sportdig0192___     ______220000____________045000000101030_____________ital HD     
SATCODX103Astra 1 (19.2E)   TMPG20125150001Eurospor0192___     ______220000____________041060005301105_____________t2 ger      
SATCODX103Astra 1 (19.2E)   TMPG20125150001Planet  0192___     ______220000____________041150005301105_____________            
SATCODX103Astra 1 (19.2E)   TMPG20117390000Nick Jr.0192___     ______275000____________286630000101066_____________.           
SATCODX103Astra 1 (19.2E)   TMPG20125150001AXN Deut0192___     ______220000____________041250005301105_____________schland     
SATCODX103Astra 1 (19.2E)   TMPG20125150001Hustler 0192___     ______220000____________041070005301105_____________TV          
SATCODX103Astra 1 (19.2E)   TMPG20125150001Brazzers0192___     ______220000____________041050005301105_____________ TV         
SATCODX103Astra 1 (19.2E)   TMPG20125150001Vivid   0192___     ______220000____________040640005301105_____________            
SATCODX103Astra 1 (19.2E)   TMPG201080300011-2-3.tv0192___     ______220000____________055020000101055_____________ HD         
SATCODX103Astra 1 (19.2E)   TMPG20107730001QVC HD  0192___     ______220000____________211030000101053_____________            
SATCODX103Astra 1 (19.2E)   TMPG20108030001QVC2 HD 0192___     ______220000____________055040000101055_____________            
SATCODX103Astra 1 (19.2E)   TMPG20107730001HSE24 HD0192___     ______220000____________211040000101053_____________            
SATCODX103Astra 1 (19.2E)   TMPG20108030001HSE24 EX0192___     ______220000____________055010000101055_____________TRA HD      
SATCODX103Astra 1 (19.2E)   TMPG20121480001MediaSho0192___     ______275000____________007750013300007_____________p- Meine Ein
SATCODX103Astra 1 (19.2E)   TMPG20125740001Juwelo H0192___     ______220000____________054030000101109_____________D           
SATCODX103Astra 1 (19.2E)   TMPG20112440001Starpara0192___     ______220000____________132260000101003_____________dies AT     
SATCODX103Astra 1 (19.2E)   TMPG20109640001Channel20192___     ______220000____________101040000101033_____________1 HD        
SATCODX103Astra 1 (19.2E)   TMPG20111120001Fashion 0192___     ______220000____________125100000101043_____________4K          
SATCODX103Astra 1 (19.2E)   TMPG20126330001K-TV    0192___     ______220000____________126010000101113_____________            
SATCODX103Astra 1 (19.2E)   TMPG20112440001Bibel TV0192___     ______220000____________132240000101003_____________ HD         
SATCODX103Astra 1 (19.2E)   TMPG20121880001TOGGO pl0192___     ______275000____________120300000101089_____________us          
SATCODX103Astra 1 (19.2E)   TMPG20109640001Zee One 0192___     ______220000____________101010000101033_____________HD          
SATCODX103Astra 1 (19.2E)   TMPG20113030001ORF2W HD0192___     ______220000____________049120000101007_____________            
SATCODX103Astra 1 (19.2E)   TMPG20112730001ORF2B HD0192___     ______220000____________133030000101005_____________            
SATCODX103Astra 1 (19.2E)   TMPG20112730001ORF2K HD0192___     ______220000____________133020000101005_____________            
SATCODX103Astra 1 (19.2E)   TMPG20113030001ORF2N HD0192___     ______220000____________049160000101007_____________            
SATCODX103Astra 1 (19.2E)   TMPG20112730001ORF2S HD0192___     ______220000____________133050000101005_____________            
SATCODX103Astra 1 (19.2E)   TMPG20112730001ORF2St H0192___     ______220000____________133010000101005_____________D           
SATCODX103Astra 1 (19.2E)   TMPG20112730001ORF2T HD0192___     ______220000____________133060000101005_____________            
SATCODX103Astra 1 (19.2E)   TMPG20112730001ORF2V HD0192___     ______220000____________133070000101005_____________            
SATCODX103Astra 1 (19.2E)   TMPG20126920001ORF2E   0192___     ______220000____________130140000101117_____________            
SATCODX103Astra 1 (19.2E)   TMPG20117580001Sky 1 HD0192___     ______275000____________001470013300002_____________            
SATCODX103Astra 1 (19.2E)   TMPG20119920001Sky Atla0192___     ______275000____________001100013300013_____________ntic HD     
SATCODX103Astra 1 (19.2E)   TMPG20123040001Fox HD  0192___     ______275000____________001240013300012_____________            
SATCODX103Astra 1 (19.2E)   TMPG20111710001TNT Seri0192___     ______220000____________001230013300009_____________e HD        
SATCODX103Astra 1 (19.2E)   TMPG20123040001SYFY HD 0192___     ______275000____________001260013300012_____________            
SATCODX103Astra 1 (19.2E)   TMPG2011992000113th Str0192___     ______275000____________001270013300013_____________eet HD      
SATCODX103Astra 1 (19.2E)   TMPG20111710001Universa0192___     ______220000____________001010013300009_____________l TV HD     
SATCODX103Astra 1 (19.2E)   TMPG20123820001TNT Come0192___     ______275000____________001360013300011_____________dy HD       
SATCODX103Astra 1 (19.2E)   TMPG20123820001E! Enter0192___     ______275000____________001280013300011_____________tainm. HD   
SATCODX103Astra 1 (19.2E)   TMPG20120320001Sky Krim0192___     ______275000____________000230013300004_____________i           
SATCODX103Astra 1 (19.2E)   TMPG20117580001Romance 0192___     ______275000____________005180013300002_____________TV          
SATCODX103Astra 1 (19.2E)   TMPG20123040001Sky Spor0192___     ______275000____________001050013300012_____________t Bundesliga
SATCODX103Astra 1 (19.2E)   TMPG20119140001Sky Spor0192___     ______275000____________002670013300006_____________t Bundesliga
SATCODX103Astra 1 (19.2E)   TMPG20119920001Sky Spor0192___     ______275000____________002770013300013_____________t Bundesliga
SATCODX103Astra 1 (19.2E)   TMPG20123040001Sky Spor0192___     ______275000____________002870013300012_____________t Bundesliga
SATCODX103Astra 1 (19.2E)   TMPG20111710001Sky Spor0192___     ______220000____________002970013300009_____________t Bundesliga
SATCODX103Astra 1 (19.2E)   TMPG20120320001Sky Spor0192___     ______275000____________003070013300004_____________t Bundesliga
SATCODX103Astra 1 (19.2E)   TMPG20117980001Sky Spor0192___     ______275000____________003370013300016_____________t Bundesliga
SATCODX103Astra 1 (19.2E)   TMPG20119140001Sky Spor0192___     ______275000____________001290013300006_____________t 1 HD      
SATCODX103Astra 1 (19.2E)   TMPG20119920001Sky Spor0192___     ______275000____________001140013300013_____________t 2 HD      
SATCODX103Astra 1 (19.2E)   TMPG20119140001Sky Spor0192___     ______275000____________002680013300006_____________t 3 HD      
SATCODX103Astra 1 (19.2E)   TMPG20119920001Sky Spor0192___     ______275000____________002780013300013_____________t 4 HD      
SATCODX103Astra 1 (19.2E)   TMPG20123040001Sky Spor0192___     ______275000____________002880013300012_____________t 5 HD      
SATCODX103Astra 1 (19.2E)   TMPG20111710001Sky Spor0192___     ______220000____________002980013300009_____________t 6 HD      
SATCODX103Astra 1 (19.2E)   TMPG20120320001Sky Spor0192___     ______275000____________003080013300004_____________t 7 HD      
SATCODX103Astra 1 (19.2E)   TMPG20117580001Sky Spor0192___     ______275000____________003180013300002_____________t 8 HD      
SATCODX103Astra 1 (19.2E)   TMPG20119140001Sky Spor0192___     ______275000____________003280013300006_____________t 9 HD      
SATCODX103Astra 1 (19.2E)   TMPG20117980001Sky Spor0192___     ______275000____________003380013300016_____________t 10 HD     
SATCODX103Astra 1 (19.2E)   TMPG20123820001Sky Spor0192___     ______275000____________002580013300011_____________t 11 HD     
SATCODX103Astra 1 (19.2E)   TMPG20111710001Sky Spor0192___     ______220000____________001430013300009_____________t Austria HD
SATCODX103Astra 1 (19.2E)   TMPG20111120001Eurospor0192___     ______220000____________125020000101043_____________t 1 HD      
SATCODX103Astra 1 (19.2E)   TMPG20123820001Eurospor0192___     ______275000____________001090013300011_____________t 2 HD      
SATCODX103Astra 1 (19.2E)   TMPG20119140001Eurospor0192___     ______275000____________002700013300006_____________t360HD 1    
SATCODX103Astra 1 (19.2E)   TMPG20119920001Eurospor0192___     ______275000____________002800013300013_____________t360HD 2    
SATCODX103Astra 1 (19.2E)   TMPG20123040001Eurospor0192___     ______275000____________002900013300012_____________t360HD 3    
SATCODX103Astra 1 (19.2E)   TMPG20111710001Eurospor0192___     ______220000____________003000013300009_____________t360HD 4    
SATCODX103Astra 1 (19.2E)   TMPG20120320001Eurospor0192___     ______275000____________003100013300004_____________t360HD 5    
SATCODX103Astra 1 (19.2E)   TMPG20117580001Eurospor0192___     ______275000____________003200013300002_____________t360HD 6    
SATCODX103Astra 1 (19.2E)   TMPG20119140001Eurospor0192___     ______275000____________003300013300006_____________t360HD 7    
SATCODX103Astra 1 (19.2E)   TMPG20117980001Eurospor0192___     ______275000____________003400013300016_____________t360HD 8    
SATCODX103Astra 1 (19.2E)   TMPG20123820001Eurospor0192___     ______275000____________002600013300011_____________t360HD 9    
SATCODX103Astra 1 (19.2E)   TMPG20108030001SPORT1 H0192___     ______220000____________055050000101055_____________D           
SATCODX103Astra 1 (19.2E)   TMPG20119140001Sky Cine0192___     ______275000____________001310013300006_____________ma HD       
SATCODX103Astra 1 (19.2E)   TMPG20123820001Sky Cine0192___     ______275000____________001340013300011_____________ma +1 HD    
SATCODX103Astra 1 (19.2E)   TMPG20123820001Sky Cine0192___     ______275000____________001350013300011_____________ma +24 HD   
SATCODX103Astra 1 (19.2E)   TMPG20123040001Sky Cine0192___     ______275000____________001070013300012_____________ma Hits HD  
SATCODX103Astra 1 (19.2E)   TMPG20111710001Sky Cine0192___     ______220000____________001160013300009_____________ma Action HD
SATCODX103Astra 1 (19.2E)   TMPG20117580001Sky Cine0192___     ______275000____________001390013300002_____________ma Family HD
SATCODX103Astra 1 (19.2E)   TMPG20119920001Disney C0192___     ______275000____________001110013300013_____________inemagic HD 
SATCODX103Astra 1 (19.2E)   TMPG20117200001Sky Cine0192___     ______275000____________000080013300003_____________ma Comedy   
SATCODX103Astra 1 (19.2E)   TMPG20120320001Sky Cine0192___     ______275000____________000200013300004_____________ma Emotion  
SATCODX103Astra 1 (19.2E)   TMPG20120320001Sky Cine0192___     ______275000____________005160013300004_____________ma High Chap
SATCODX103Astra 1 (19.2E)   TMPG20120320001TNT Film0192___     ______275000____________001400013300004_____________ HD         
SATCODX103Astra 1 (19.2E)   TMPG20117200001Beate-Uh0192___     ______275000____________001330013300003_____________se.TV HD    
SATCODX103Astra 1 (19.2E)   TMPG20117580001Heimatka0192___     ______275000____________000220013300002_____________nal         
SATCODX103Astra 1 (19.2E)   TMPG20120320001Kinowelt0192___     ______275000____________004060013300004_____________ TV         
SATCODX103Astra 1 (19.2E)   TMPG20117200001Sky Sele0192___     ______275000____________002510013300003_____________ct 1        
SATCODX103Astra 1 (19.2E)   TMPG20117200001Sky Sele0192___     ______275000____________002610013300003_____________ct 2        
SATCODX103Astra 1 (19.2E)   TMPG20117580001Sky Sele0192___     ______275000____________002710013300002_____________ct 3        
SATCODX103Astra 1 (19.2E)   TMPG20117580001Sky Sele0192___     ______275000____________002810013300002_____________ct 4        
SATCODX103Astra 1 (19.2E)   TMPG20117200001Sky Sele0192___     ______275000____________002910013300003_____________ct 5        
SATCODX103Astra 1 (19.2E)   TMPG20117200001Sky Sele0192___     ______275000____________003010013300003_____________ct 6        
SATCODX103Astra 1 (19.2E)   TMPG20117200001Sky Sele0192___     ______275000____________003110013300003_____________ct 7        
SATCODX103Astra 1 (19.2E)   TMPG20117200001Sky Sele0192___     ______275000____________003210013300003_____________ct 8        
SATCODX103Astra 1 (19.2E)   TMPG20117580001Sky Sele0192___     ______275000____________003310013300002_____________ct 9        
SATCODX103Astra 1 (19.2E)   TMPG20117200001Sky Sele0192___     ______275000____________002540013300003_____________ct Event A  
SATCODX103Astra 1 (19.2E)   TMPG20117580001Sky Sele0192___     ______275000____________003340013300002_____________ct Event B  
SATCODX103Astra 1 (19.2E)   TMPG20123820001Blue Mov0192___     ______275000____________003450013300011_____________ie 1        
SATCODX103Astra 1 (19.2E)   TMPG20123820001Blue Mov0192___     ______275000____________003550013300011_____________ie 2        
SATCODX103Astra 1 (19.2E)   TMPG20123820001Blue Mov0192___     ______275000____________003650013300011_____________ie 3        
SATCODX103Astra 1 (19.2E)   TMPG20119920001NatGeo H0192___     ______275000____________001120013300013_____________D           
SATCODX103Astra 1 (19.2E)   TMPG20119140001Nat Geo 0192___     ______275000____________001180013300006_____________Wild HD     
SATCODX103Astra 1 (19.2E)   TMPG20117980001Spiegel 0192___     ______275000____________001370013300016_____________Geschichte H
SATCODX103Astra 1 (19.2E)   TMPG20123820001History 0192___     ______275000____________001130013300011_____________HD          
SATCODX103Astra 1 (19.2E)   TMPG20119140001Discover0192___     ______275000____________001300013300006_____________y HD        
SATCODX103Astra 1 (19.2E)   TMPG20123820001Motorvis0192___     ______275000____________001680013300011_____________ion TV      
SATCODX103Astra 1 (19.2E)   TMPG20123820001A&E     0192___     ______275000____________004020013300011_____________            
SATCODX103Astra 1 (19.2E)   TMPG20117200001Disney J0192___     ______275000____________001380013300003_____________unior HD    
SATCODX103Astra 1 (19.2E)   TMPG20117200001Disney X0192___     ______275000____________000280013300003_____________D           
SATCODX103Astra 1 (19.2E)   TMPG20120320001Junior  0192___     ______275000____________000190013300004_____________            
SATCODX103Astra 1 (19.2E)   TMPG20123820001Boomeran0192___     ______275000____________004030013300011_____________g           
SATCODX103Astra 1 (19.2E)   TMPG20123820001Cartoon 0192___     ______275000____________004040013300011_____________Network     
SATCODX103Astra 1 (19.2E)   TMPG20111710001Jukebox 0192___     ______220000____________004010013300009_____________            
SATCODX103Astra 1 (19.2E)   TMPG20120320001Classica0192___     ______275000____________000240013300004_____________            
SATCODX103Astra 1 (19.2E)   TMPG20124600001SIXX    0192___     ______275000____________007760013300005_____________            
SATCODX103Astra 1 (19.2E)   TMPG20118360001hr-ferns0192___     ______275000____________281080000101101_____________ehen        
SATCODX103Astra 1 (19.2E)   TMPG20121100001rbb Bran0192___     ______275000____________282050000101073_____________denburg     
SATCODX103Astra 1 (19.2E)   TMPG20121100001NDR FS M0192___     ______275000____________282240000101073_____________V           
SATCODX103Astra 1 (19.2E)   TMPG20121100001MDR S-An0192___     ______275000____________282290000101073_____________halt        
SATCODX103Astra 1 (19.2E)   TMPG20118360001SWR Fern0192___     ______275000____________281130000101101_____________sehen BW    
SATCODX103Astra 1 (19.2E)   TMPG201195400013sat    0192___     ______275000____________280070000101079_____________            
SATCODX103Astra 1 (19.2E)   TMPG20122260001HSE24 EX0192___     ______275000____________312100000101091_____________TRA         
SATCODX103Astra 1 (19.2E)   TMPG20125520000QVC Deut0192___     ______220000____________121000000101108_____________schland     
SATCODX103Astra 1 (19.2E)   TMPG20126920001ORF1    0192___     ______220000____________130010000101117_____________            
SATCODX103Astra 1 (19.2E)   TMPG20126920001ORF2    0192___     ______220000____________130020000101117_____________            
SATCODX103Astra 1 (19.2E)   TMPG20118360001Das Erst0192___     ______275000____________281060000101101_____________e           
SATCODX103Astra 1 (19.2E)   TMPG20119540001ZDF     0192___     ______275000____________280060000101079_____________            
SATCODX103Astra 1 (19.2E)   TMPG20108030001Disney C0192___     ______220000____________055000000101055_____________hannel HD   
SATCODX103Astra 1 (19.2E)   TMPG20120320001Sky Cine0192___     ______275000____________000100013300004_____________ma          
SATCODX103Astra 1 (19.2E)   TMPG20120320001Sky Sele0192___     ______275000____________000180013300004_____________ct          
SATCODX103Astra 1 (19.2E)   TMPG20120320001Sky Spor0192___     ______275000____________002210013300004_____________t 1         
SATCODX103Astra 1 (19.2E)   TMPG20117580001Sky Spor0192___     ______275000____________002220013300002_____________t 2         
SATCODX103Astra 1 (19.2E)   TMPG20117200001Sky Spor0192___     ______275000____________002630013300003_____________t 3         
SATCODX103Astra 1 (19.2E)   TMPG20117200001Sky Spor0192___     ______275000____________002930013300003_____________t 6         
SATCODX103Astra 1 (19.2E)   TMPG20117200001Sky Spor0192___     ______275000____________003030013300003_____________t 7         
SATCODX103Astra 1 (19.2E)   TMPG20117580001Sky Spor0192___     ______275000____________003330013300002_____________t 10        
SATCODX103Astra 1 (19.2E)   TMPG20117200001Sky Spor0192___     ______275000____________002530013300003_____________t 11        
SATCODX103Astra 1 (19.2E)   TMPG20117580001Sky Spor0192___     ______275000____________000300013300002_____________t Austria   
SATCODX103Astra 1 (19.2E)   TMPG20111270000#0 HD   0192___     ______220000____________308600000101044_____________            
SATCODX103Astra 1 (19.2E)   TMPG20109210001.       0192___     ______220000____________000550013300015_____________            
SATCODX103Astra 1 (19.2E)   TMPG20116710001.       0192___     ______220000____________053040000101031_____________            
SATCODX103Astra 1 (19.2E)   TMPG20111120001.       0192___     ______220000____________125010000101043_____________            
SATCODX103Astra 1 (19.2E)   TMPG20120320001Sky Cine0192___     ______275000____________004070013300004_____________ma Family   
SATCODX103Astra 1 (19.2E)   TMPG20114210001.       0192___     ______220000____________047120000101015_____________            
SATCODX103Astra 1 (19.2E)   TMPG20116710001.       0192___     ______220000____________053020000101031_____________            
SATCODX103Astra 1 (19.2E)   TMPG20112290000INSIGHT 0192___     ______220000____________050100000101002_____________TV HD       
SATCODX103Astra 1 (19.2E)   TMPG20111710001.       0192___     ______220000____________001410013300009_____________            
SATCODX103Astra 1 (19.2E)   TMPG20111710001.       0192___     ______220000____________001420013300009_____________            
SATCODX103Astra 1 (19.2E)   TMPG20109360000NAT GEO 0192___     ______220000____________307610000101064_____________HD          
SATCODX103Astra 1 (19.2E)   TMPG201181700006TER    0192___     ______297000____________080110000101070_____________            
SATCODX103Astra 1 (19.2E)   TMPG20112290000Al Jazee0192___     ______220000____________050310000101002_____________ra English H
SATCODX103Astra 1 (19.2E)   TMPG20107290000ALQUILER0192___     ______220000____________308140000101050_____________ 2 HD       
SATCODX103Astra 1 (19.2E)   TMPG20107290000ALQUILER0192___     ______220000____________308040000101050_____________ HD         
SATCODX103Astra 1 (19.2E)   TMPG20107290000AXN HD  0192___     ______220000____________308060000101050_____________            
SATCODX103Astra 1 (19.2E)   TMPG20114360000AXN WHIT0192___     ______220000____________299150000101016_____________E HD        
SATCODX103Astra 1 (19.2E)   TMPG20108180000BEIN LAL0192___     ______220000____________299670000101056_____________IGA         
SATCODX103Astra 1 (19.2E)   TMPG20107290000M.LCAMPE0192___     ______220000____________308170000101050_____________ON1         
SATCODX103Astra 1 (19.2E)   TMPG20107290000M.LCAMPE0192___     ______220000____________308200000101050_____________ON2         
SATCODX103Astra 1 (19.2E)   TMPG20112590000M.LCAMPE0192___     ______220000____________309000000101004_____________ONES        
SATCODX103Astra 1 (19.2E)   TMPG20107290000BEINLALI0192___     ______220000____________308050000101050_____________GA2         
SATCODX103Astra 1 (19.2E)   TMPG20118170000BET     0192___     ______297000____________080010000101070_____________            
SATCODX103Astra 1 (19.2E)   TMPG20115820001BR Ferns0192___     ______220000____________103260000101025_____________ehen Nord HD
SATCODX103Astra 1 (19.2E)   TMPG20122070000C8      0192___     ______297000____________090120000101090_____________            
SATCODX103Astra 1 (19.2E)   TMPG20109360000CALLE 130192___     ______220000____________307560000101064_____________ HD         
SATCODX103Astra 1 (19.2E)   TMPG20120120000CANAL+  0192___     ______297000____________088010000101080_____________            
SATCODX103Astra 1 (19.2E)   TMPG20120120000CANAL+ C0192___     ______297000____________088030000101080_____________INEMA       
SATCODX103Astra 1 (19.2E)   TMPG20120120000CANAL+ D0192___     ______297000____________088020000101080_____________ECALE       
SATCODX103Astra 1 (19.2E)   TMPG20120120000CANAL+ F0192___     ______297000____________088050000101080_____________AMILY       
SATCODX103Astra 1 (19.2E)   TMPG20120120000CANAL+ S0192___     ______297000____________088060000101080_____________ERIES       
SATCODX103Astra 1 (19.2E)   TMPG20120120000CANAL+ S0192___     ______297000____________088040000101080_____________PORT        
SATCODX103Astra 1 (19.2E)   TMPG20121290000CARTOON 0192___     ______297000____________099080000101086_____________NETWORK     
SATCODX103Astra 1 (19.2E)   TMPG20111270000CAZAyPES0192___     ______220000____________308610000101044_____________CA HD       
SATCODX103Astra 1 (19.2E)   TMPG20120120000CINE+ CL0192___     ______297000____________088090000101080_____________ASSIC       
SATCODX103Astra 1 (19.2E)   TMPG20121680000CINE+ EM0192___     ______297000____________093070000101088_____________OTION       
SATCODX103Astra 1 (19.2E)   TMPG20120120000CINE+ FA0192___     ______297000____________088080000101080_____________MIZ         
SATCODX103Astra 1 (19.2E)   TMPG20120120000CINE+ FR0192___     ______297000____________088070000101080_____________ISSON       
SATCODX103Astra 1 (19.2E)   TMPG20121680000CINE+ PR0192___     ______297000____________093020000101088_____________EMIER       
SATCODX103Astra 1 (19.2E)   TMPG20112590000COMEDYCE0192___     ______220000____________309120000101004_____________NTRALHD     
SATCODX103Astra 1 (19.2E)   TMPG20112590000COSMO HD0192___     ______220000____________309040000101004_____________            
SATCODX103Astra 1 (19.2E)   TMPG20108030001Deluxe M0192___     ______220000____________055030000101055_____________usic HD     
SATCODX103Astra 1 (19.2E)   TMPG20111270000DISNEY C0192___     ______220000____________308590000101044_____________H HD        
SATCODX103Astra 1 (19.2E)   TMPG20122070000DISNEY C0192___     ______297000____________090070000101090_____________HANNEL      
SATCODX103Astra 1 (19.2E)   TMPG20120900000DISNEY C0192___     ______297000____________094080000101084_____________HANNEL+1    
SATCODX103Astra 1 (19.2E)   TMPG20120900000DISNEY C0192___     ______297000____________094020000101084_____________INEMA       
SATCODX103Astra 1 (19.2E)   TMPG20120900000DISNEY X0192___     ______297000____________094010000101084_____________D           
SATCODX103Astra 1 (19.2E)   TMPG20125740001DMAX HD 0192___     ______220000____________054020000101109_____________            
SATCODX103Astra 1 (19.2E)   TMPG20122460000EQUIDIA 0192___     ______297000____________066120000101092_____________            
SATCODX103Astra 1 (19.2E)   TMPG20120900000EUROSPOR0192___     ______297000____________094060000101084_____________T 2         
SATCODX103Astra 1 (19.2E)   TMPG20111120001Eurospor0192___     ______220000____________125030000101043_____________t 2 HD Xtra 
SATCODX103Astra 1 (19.2E)   TMPG20109360000EUROSPOR0192___     ______220000____________307580000101064_____________T1HD        
SATCODX103Astra 1 (19.2E)   TMPG20122460000EVENEMEN0192___     ______297000____________066090000101092_____________T           
SATCODX103Astra 1 (19.2E)   TMPG20112730001flimmit 0192___     ______220000____________133100000101005_____________Zusatzpaket 
SATCODX103Astra 1 (19.2E)   TMPG20109210001Genius f0192___     ______220000____________000330013300015_____________amily       
SATCODX103Astra 1 (19.2E)   TMPG20108180000FOX HD  0192___     ______220000____________299560000101056_____________            
SATCODX103Astra 1 (19.2E)   TMPG20112590000FOX LIFE0192___     ______220000____________309010000101004_____________ HD         
SATCODX103Astra 1 (19.2E)   TMPG20121680000FRANCE 20192___     ______297000____________093060000101088_____________            
SATCODX103Astra 1 (19.2E)   TMPG20121680000FRANCE 30192___     ______297000____________093090000101088_____________            
SATCODX103Astra 1 (19.2E)   TMPG20122070000FRANCE 50192___     ______297000____________090080000101090_____________            
SATCODX103Astra 1 (19.2E)   TMPG20118170000FRANCEIN0192___     ______297000____________080050000101070_____________FO:         
SATCODX103Astra 1 (19.2E)   TMPG20121290000GOLF+   0192___     ______297000____________099030000101086_____________            
SATCODX103Astra 1 (19.2E)   TMPG20122070000TF1 SERI0192___     ______297000____________090030000101090_____________ES FILMS    
SATCODX103Astra 1 (19.2E)   TMPG20118170000HISTOIRE0192___     ______297000____________080060000101070_____________            
SATCODX103Astra 1 (19.2E)   TMPG20108180000HOLLYWOO0192___     ______220000____________299640000101056_____________DHD         
SATCODX103Astra 1 (19.2E)   TMPG20112440001HOPE Cha0192___     ______220000____________132270000101003_____________nnel HD     
SATCODX103Astra 1 (19.2E)   TMPG20122070000INFOSPOR0192___     ______297000____________090100000101090_____________T+          
SATCODX103Astra 1 (19.2E)   TMPG20121290000J-ONE   0192___     ______297000____________099060000101086_____________            
SATCODX103Astra 1 (19.2E)   TMPG20114640001kabel ei0192___     ______220000____________613020000101017_____________ns HD       
SATCODX103Astra 1 (19.2E)   TMPG20107290000LA 1 HD 0192___     ______220000____________308190000101050_____________            
SATCODX103Astra 1 (19.2E)   TMPG20107290000LALIGATV0192___     ______220000____________308090000101050_____________ BAR        
SATCODX103Astra 1 (19.2E)   TMPG20122070000LCI     0192___     ______297000____________090090000101090_____________            
SATCODX103Astra 1 (19.2E)   TMPG20122460000LIBIDO T0192___     ______297000____________066070000101092_____________V           
SATCODX103Astra 1 (19.2E)   TMPG20108180000M. ACCIÓ0192___     ______220000____________299610000101056_____________N HD        
SATCODX103Astra 1 (19.2E)   TMPG20108180000M. DRAMA0192___     ______220000____________299630000101056_____________ HD         
SATCODX103Astra 1 (19.2E)   TMPG20109360000M. DEPOR0192___     ______220000____________307600000101064_____________TESHD       
SATCODX103Astra 1 (19.2E)   TMPG20114360000#VAMOSHD0192___     ______220000____________299100000101016_____________            
SATCODX103Astra 1 (19.2E)   TMPG20108180000BEINLALI0192___     ______220000____________299510000101056_____________GA1         
SATCODX103Astra 1 (19.2E)   TMPG20112590000M. GOLF 0192___     ______220000____________309030000101004_____________HD          
SATCODX103Astra 1 (19.2E)   TMPG20111270000M. SERIE0192___     ______220000____________308500000101044_____________S HD        
SATCODX103Astra 1 (19.2E)   TMPG20112590000M.Series0192___     ______220000____________309020000101004_____________mania HD    
SATCODX103Astra 1 (19.2E)   TMPG20114360000M.CineDo0192___     ______220000____________299120000101016_____________c&Roll      
SATCODX103Astra 1 (19.2E)   TMPG20107290000M.COMEDI0192___     ______220000____________308070000101050_____________A HD        
SATCODX103Astra 1 (19.2E)   TMPG20114360000M.ESTREN0192___     ______220000____________299090000101016_____________OSHD        
SATCODX103Astra 1 (19.2E)   TMPG20107290000M.Partid0192___     ______220000____________308150000101050_____________azoHD       
SATCODX103Astra 1 (19.2E)   TMPG20121680000M6      0192___     ______297000____________093030000101088_____________            
SATCODX103Astra 1 (19.2E)   TMPG20112290000MB LIVE 0192___     ______220000____________050810000101002_____________            
SATCODX103Astra 1 (19.2E)   TMPG20126330001freenet 0192___     ______220000____________126070000101113_____________TV connect  
SATCODX103Astra 1 (19.2E)   TMPG20108910001MDR S-An0192___     ______220000____________103530000101061_____________halt HD     
SATCODX103Astra 1 (19.2E)   TMPG20108910001MDR Thür0192___     ______220000____________103540000101061_____________ingen HD    
SATCODX103Astra 1 (19.2E)   TMPG20109360000MEZZO LI0192___     ______220000____________307550000101064_____________VE HD       
SATCODX103Astra 1 (19.2E)   TMPG20118170000MTV     0192___     ______297000____________080040000101070_____________            
SATCODX103Astra 1 (19.2E)   TMPG20109640001MTV HD  0192___     ______220000____________101030000101033_____________            
SATCODX103Astra 1 (19.2E)   TMPG20118170000MTV HITS0192___     ______297000____________080030000101070_____________            
SATCODX103Astra 1 (19.2E)   TMPG20121290000MULTISPO0192___     ______297000____________099210000101086_____________RTS 5       
SATCODX103Astra 1 (19.2E)   TMPG20122460000MULTISPO0192___     ______297000____________066210000101092_____________RTS 6       
SATCODX103Astra 1 (19.2E)   TMPG20121290000MUSEUM  0192___     ______297000____________099010000101086_____________            
SATCODX103Astra 1 (19.2E)   TMPG20120900000MY ZEN T0192___     ______297000____________094070000101084_____________V           
SATCODX103Astra 1 (19.2E)   TMPG20107730001WELT HD 0192___     ______220000____________211080000101053_____________            
SATCODX103Astra 1 (19.2E)   TMPG20122070000NATIONAL0192___     ______297000____________090020000101090_____________ GEO        
SATCODX103Astra 1 (19.2E)   TMPG20115820001NDR FS H0192___     ______220000____________103290000101025_____________H HD        
SATCODX103Astra 1 (19.2E)   TMPG20115820001NDR FS M0192___     ______220000____________103280000101025_____________V HD        
SATCODX103Astra 1 (19.2E)   TMPG20115820001NDR FS S0192___     ______220000____________103300000101025_____________H HD        
SATCODX103Astra 1 (19.2E)   TMPG20111270000NG WILD 0192___     ______220000____________308570000101044_____________HD          
SATCODX103Astra 1 (19.2E)   TMPG20118170000NICKELOD0192___     ______297000____________080080000101070_____________EON         
SATCODX103Astra 1 (19.2E)   TMPG20107730001Comedy C0192___     ______220000____________211070000101053_____________entral HD   
SATCODX103Astra 1 (19.2E)   TMPG20109360000NICKELOD0192___     ______220000____________307520000101064_____________EONHD       
SATCODX103Astra 1 (19.2E)   TMPG20110820001NITRO HD0192___     ______220000____________119510000101041_____________            
SATCODX103Astra 1 (19.2E)   TMPG20120900000NON STOP0192___     ______297000____________094050000101084_____________ PEOPLE     
SATCODX103Astra 1 (19.2E)   TMPG20122460000NOVELAS 0192___     ______297000____________066020000101092_____________TV          
SATCODX103Astra 1 (19.2E)   TMPG20120900000OCS CHOC0192___     ______297000____________094040000101084_____________            
SATCODX103Astra 1 (19.2E)   TMPG20118170000RMC SPOR0192___     ______297000____________080070000101070_____________T 4         
SATCODX103Astra 1 (19.2E)   TMPG20122460000OCS GEAN0192___     ______297000____________066040000101092_____________TS          
SATCODX103Astra 1 (19.2E)   TMPG20121290000ONZEO   0192___     ______297000____________099090000101086_____________            
SATCODX103Astra 1 (19.2E)   TMPG20122460000PARAMOUN0192___     ______297000____________066060000101092_____________T CHANNEL   
SATCODX103Astra 1 (19.2E)   TMPG20122070000PARIS PR0192___     ______297000____________090040000101090_____________EMIERE      
SATCODX103Astra 1 (19.2E)   TMPG20125740001pearl.tv0192___     ______220000____________054040000101109_____________ HD Shop    
SATCODX103Astra 1 (19.2E)   TMPG20121290000PENTHOUS0192___     ______297000____________099070000101086_____________E           
SATCODX103Astra 1 (19.2E)   TMPG20122460000PENTHOUS0192___     ______297000____________066080000101092_____________E BLACK     
SATCODX103Astra 1 (19.2E)   TMPG20118170000PINK X  0192___     ______297000____________080090000101070_____________            
SATCODX103Astra 1 (19.2E)   TMPG20122070000PLANETE+0192___     ______297000____________090060000101090_____________            
SATCODX103Astra 1 (19.2E)   TMPG20121290000PLANETE+0192___     ______297000____________099120000101086_____________ A&E        
SATCODX103Astra 1 (19.2E)   TMPG20120900000PLANETE+0192___     ______297000____________094090000101084_____________ CI         
SATCODX103Astra 1 (19.2E)   TMPG20114640001Pro7 MAX0192___     ______220000____________613040000101017_____________X HD        
SATCODX103Astra 1 (19.2E)   TMPG20114640001ProSiebe0192___     ______220000____________613010000101017_____________n HD        
SATCODX103Astra 1 (19.2E)   TMPG20109640001QVC Styl0192___     ______220000____________101050000101033_____________e HD        
SATCODX103Astra 1 (19.2E)   TMPG20112730001R9 Oeste0192___     ______220000____________133120000101005_____________rreich HD   
SATCODX103Astra 1 (19.2E)   TMPG20108910001rbb Bran0192___     ______220000____________103500000101061_____________denburg HD  
SATCODX103Astra 1 (19.2E)   TMPG20108320001RTL HD  0192___     ______220000____________612000000101057_____________            
SATCODX103Astra 1 (19.2E)   TMPG20108320001RTLII HD0192___     ______220000____________612050000101057_____________            
SATCODX103Astra 1 (19.2E)   TMPG20111120001SAT.1 Go0192___     ______220000____________125000000101043_____________ld HD       
SATCODX103Astra 1 (19.2E)   TMPG20114640001SAT.1 HD0192___     ______220000____________613000000101017_____________            
SATCODX103Astra 1 (19.2E)   TMPG20122460000SEASONS 0192___     ______297000____________066100000101092_____________            
SATCODX103Astra 1 (19.2E)   TMPG20113030001ServusTV0192___     ______220000____________049140000101007_____________ HD Deutschl
SATCODX103Astra 1 (19.2E)   TMPG20113030001ServusTV0192___     ______220000____________049130000101007_____________ HD Oesterre
SATCODX103Astra 1 (19.2E)   TMPG20114640001SIXX HD 0192___     ______220000____________613030000101017_____________            
SATCODX103Astra 1 (19.2E)   TMPG20125740001sonnenkl0192___     ______220000____________054000000101109_____________ar.TV HD    
SATCODX103Astra 1 (19.2E)   TMPG20109640001Sparhand0192___     ______220000____________101020000101033_____________y TV 2 HD   
SATCODX103Astra 1 (19.2E)   TMPG20110530001SR Ferns0192___     ______220000____________103780000101039_____________ehen HD     
SATCODX103Astra 1 (19.2E)   TMPG20110820001SUPER RT0192___     ______220000____________119310000101041_____________L HD        
SATCODX103Astra 1 (19.2E)   TMPG20114940001SWR RP H0192___     ______220000____________103040000101019_____________D           
SATCODX103Astra 1 (19.2E)   TMPG20114360000SYFY HD 0192___     ______220000____________299010000101016_____________            
SATCODX103Astra 1 (19.2E)   TMPG20121290000TCM CINE0192___     ______297000____________099020000101086_____________MA          
SATCODX103Astra 1 (19.2E)   TMPG20111270000TCM HD  0192___     ______220000____________308530000101044_____________            
SATCODX103Astra 1 (19.2E)   TMPG20125740001TELE 5 H0192___     ______220000____________054010000101109_____________D           
SATCODX103Astra 1 (19.2E)   TMPG20120900000TELETOON0192___     ______297000____________094110000101084_____________+           
SATCODX103Astra 1 (19.2E)   TMPG20120900000TELETOON0192___     ______297000____________094120000101084_____________+1          
SATCODX103Astra 1 (19.2E)   TMPG20121290000TEVA    0192___     ______297000____________099050000101086_____________            
SATCODX103Astra 1 (19.2E)   TMPG20109640001TLC HD  0192___     ______220000____________101000000101033_____________            
SATCODX103Astra 1 (19.2E)   TMPG20111270000TNT HD  0192___     ______220000____________308560000101044_____________            
SATCODX103Astra 1 (19.2E)   TMPG20121290000TOONAMI 0192___     ______297000____________099220000101086_____________            
SATCODX103Astra 1 (19.2E)   TMPG20109360000TOROS HD0192___     ______220000____________307650000101064_____________            
SATCODX103Astra 1 (19.2E)   TMPG20121290000TV5 MOND0192___     ______297000____________099100000101086_____________E           
SATCODX103Astra 1 (19.2E)   TMPG20121680000USHUAIA 0192___     ______297000____________093050000101088_____________TV          
SATCODX103Astra 1 (19.2E)   TMPG20114360000VIAJAR H0192___     ______220000____________299070000101016_____________D           
SATCODX103Astra 1 (19.2E)   TMPG20108320001VOX HD  0192___     ______220000____________612010000101057_____________            
SATCODX103Astra 1 (19.2E)   TMPG20122460000VOYAGE  0192___     ______297000____________066050000101092_____________            
SATCODX103Astra 1 (19.2E)   TMPG20121680000W9      0192___     ______297000____________093040000101088_____________            
SATCODX103Astra 1 (19.2E)   TMPG20126040001WDR HD A0192___     ______220000____________285440000101111_____________achen       
SATCODX103Astra 1 (19.2E)   TMPG20124220001WDR HD B0192___     ______275000____________283260000101201_____________ielefeld    
SATCODX103Astra 1 (19.2E)   TMPG20126040001WDR HD B0192___     ______220000____________285460000101111_____________onn         
SATCODX103Astra 1 (19.2E)   TMPG20124220001WDR HD D0192___     ______275000____________283270000101201_____________ortmund     
SATCODX103Astra 1 (19.2E)   TMPG20126040001WDR HD D0192___     ______220000____________285470000101111_____________uisburg     
SATCODX103Astra 1 (19.2E)   TMPG20124220001WDR HD D0192___     ______275000____________283280000101201_____________üsseldorf   
SATCODX103Astra 1 (19.2E)   TMPG20124220001WDR HD E0192___     ______275000____________283290000101201_____________ssen        
SATCODX103Astra 1 (19.2E)   TMPG20124220001WDR HD M0192___     ______275000____________283300000101201_____________ünster      
SATCODX103Astra 1 (19.2E)   TMPG20124220001WDR HD S0192___     ______275000____________283310000101201_____________iegen       
SATCODX103Astra 1 (19.2E)   TMPG20126040001WDR HD W0192___     ______220000____________285450000101111_____________uppertal    
SATCODX103Astra 1 (19.2E)   TMPG20108470000        0192___     ______220000____________301950000101058_____________            
SATCODX103Astra 1 (19.2E)   TMPG20108470000        0192___     ______220000____________301180000101058_____________            
SATCODX103Astra 1 (19.2E)   TMPG20121880001RTL Tele0192___     ______275000____________120030000101089_____________vision      
SATCODX103Astra 1 (19.2E)   TMPG20121880001RTL2    0192___     ______275000____________120200000101089_____________            
SATCODX103Astra 1 (19.2E)   TMPG20121880001VOX     0192___     ______275000____________120600000101089_____________            
SATCODX103Astra 1 (19.2E)   TMPG20108470000        0192___     ______220000____________301930000101058_____________            
SATCODX103Astra 1 (19.2E)   TMPG20121880001NITRO   0192___     ______275000____________120610000101089_____________            
SATCODX103Astra 1 (19.2E)   TMPG20108470000        0192___     ______220000____________301940000101058_____________            
SATCODX103Astra 1 (19.2E)   TMPG20121880001RTLplus 0192___     ______275000____________120800000101089_____________            
SATCODX103Astra 1 (19.2E)   TMPG20108470000        0192___     ______220000____________301540000101058_____________            
SATCODX103Astra 1 (19.2E)   TMPG20108470000        0192___     ______220000____________301970000101058_____________            
SATCODX103Astra 1 (19.2E)   TMPG20108470000        0192___     ______220000____________301790000101058_____________            
SATCODX103Astra 1 (19.2E)   TMPG20121880001SUPER RT0192___     ______275000____________120400000101089_____________L           
SATCODX103Astra 1 (19.2E)   TMPG20108470000        0192___     ______220000____________301900000101058_____________            
SATCODX103Astra 1 (19.2E)   TMPG20108470000        0192___     ______220000____________301230000101058_____________            
SATCODX103Astra 1 (19.2E)   TMPG20108470000        0192___     ______220000____________301270000101058_____________            
SATCODX103Astra 1 (19.2E)   TMPG20108470000        0192___     ______220000____________301590000101058_____________            
SATCODX103Astra 1 (19.2E)   TMPG20108470000        0192___     ______220000____________301910000101058_____________            
SATCODX103Astra 1 (19.2E)   TMPG20109790000        0192___     ______220000____________306600000101034_____________            
SATCODX103Astra 1 (19.2E)   TMPG20108470000        0192___     ______220000____________301220000101058_____________            
SATCODX103Astra 1 (19.2E)   TMPG20108470000        0192___     ______220000____________301510000101058_____________            
SATCODX103Astra 1 (19.2E)   TMPG20113180000#0      0192___     ______220000____________298160000101008_____________            
SATCODX103Astra 1 (19.2E)   TMPG20109210001.       0192___     ______220000____________000580013300015_____________            
SATCODX103Astra 1 (19.2E)   TMPG20121480001.       0192___     ______275000____________007680013300007_____________            
SATCODX103Astra 1 (19.2E)   TMPG20125740001.       0192___     ______220000____________054110000101109_____________            
SATCODX103Astra 1 (19.2E)   TMPG20124800000Baden TV0192___     ______275000____________000760013300033_____________            
SATCODX103Astra 1 (19.2E)   TMPG20114210001.       0192___     ______220000____________047160000101015_____________            
SATCODX103Astra 1 (19.2E)   TMPG20109210001HGTV    0192___     ______220000____________000380013300015_____________            
SATCODX103Astra 1 (19.2E)   TMPG20121480001TLC Aust0192___     ______275000____________000710013300007_____________ria         
SATCODX103Astra 1 (19.2E)   TMPG20114210001.       0192___     ______220000____________047170000101015_____________            
SATCODX103Astra 1 (19.2E)   TMPG20117980001.       0192___     ______275000____________000310013300016_____________            
SATCODX103Astra 1 (19.2E)   TMPG20125450001.       0192___     ______220000____________175060000101107_____________            
SATCODX103Astra 1 (19.2E)   TMPG20125740001.       0192___     ______220000____________054120000101109_____________            
SATCODX103Astra 1 (19.2E)   TMPG20109210001.       0192___     ______220000____________000570013300015_____________            
SATCODX103Astra 1 (19.2E)   TMPG20120510000.       0192___     ______275000____________200110000101082_____________            
SATCODX103Astra 1 (19.2E)   TMPG20114210001.       0192___     ______220000____________047110000101015_____________            
SATCODX103Astra 1 (19.2E)   TMPG20124600001Nicer Di0192___     ______275000____________000740013300005_____________cer TV      
SATCODX103Astra 1 (19.2E)   TMPG20109210001.       0192___     ______220000____________000560013300015_____________            
SATCODX103Astra 1 (19.2E)   TMPG20109210001.       0192___     ______220000____________000590013300015_____________            
SATCODX103Astra 1 (19.2E)   TMPG20121480001.       0192___     ______275000____________000720013300007_____________            
SATCODX103Astra 1 (19.2E)   TMPG20114210001.       0192___     ______220000____________047100000101015_____________            
SATCODX103Astra 1 (19.2E)   TMPG20114210001.       0192___     ______220000____________047140000101015_____________            
SATCODX103Astra 1 (19.2E)   TMPG20114210001.       0192___     ______220000____________047150000101015_____________            
SATCODX103Astra 1 (19.2E)   TMPG20114210001.1.     0192___     ______220000____________047180000101015_____________            
SATCODX103Astra 1 (19.2E)   TMPG20114210001.2.     0192___     ______220000____________047190000101015_____________            
SATCODX103Astra 1 (19.2E)   TMPG20114210001.3.     0192___     ______220000____________047200000101015_____________            
SATCODX103Astra 1 (19.2E)   TMPG201246000011-2-3.tv0192___     ______275000____________006620013300005_____________            
SATCODX103Astra 1 (19.2E)   TMPG20126330001Achtung 0192___     ______220000____________126200000101113_____________Sexy TV temp
SATCODX103Astra 1 (19.2E)   TMPG2011156000024 HORAS0192___     ______220000____________305200000101046_____________            
SATCODX103Astra 1 (19.2E)   TMPG201142100013+      0192___     ______220000____________047040000101015_____________            
SATCODX103Astra 1 (19.2E)   TMPG20111560000BLAZE   0192___     ______220000____________305090000101046_____________            
SATCODX103Astra 1 (19.2E)   TMPG20116560000Aaj Tak 0192___     ______220000____________045780000101030_____________UK          
SATCODX103Astra 1 (19.2E)   TMPG20125150001AB3     0192___     ______220000____________041020005301105_____________            
SATCODX103Astra 1 (19.2E)   TMPG20126330001Achtung 0192___     ______220000____________126280000101113_____________Sexy TV     
SATCODX103Astra 1 (19.2E)   TMPG20115090000Al Jazee0192___     ______220000____________070090000101020_____________ra Channel  
SATCODX103Astra 1 (19.2E)   TMPG20116270000Al Jazee0192___     ______220000____________044400000101028_____________ra English  
SATCODX103Astra 1 (19.2E)   TMPG20110970000ALQ XXHA0192___     ______220000____________300580000101042_____________RD          
SATCODX103Astra 1 (19.2E)   TMPG20108470000ALQUILER0192___     ______220000____________301280000101058_____________            
SATCODX103Astra 1 (19.2E)   TMPG20108470000ALQUILER0192___     ______220000____________301300000101058_____________            
SATCODX103Astra 1 (19.2E)   TMPG20107880000ALQUILER0192___     ______220000____________303500000101054_____________ 1          
SATCODX103Astra 1 (19.2E)   TMPG20107880000ALQUILER0192___     ______220000____________303510000101054_____________ 2          
SATCODX103Astra 1 (19.2E)   TMPG20110970000ALQUILER0192___     ______220000____________300550000101042_____________ 3          
SATCODX103Astra 1 (19.2E)   TMPG20110970000ALQUILER0192___     ______220000____________300630000101042_____________ 4          
SATCODX103Astra 1 (19.2E)   TMPG20110970000ALQUILER0192___     ______220000____________300530000101042_____________ 5          
SATCODX103Astra 1 (19.2E)   TMPG20110970000ALQUILER0192___     ______220000____________300540000101042_____________ 6          
SATCODX103Astra 1 (19.2E)   TMPG20110970000ALQUILER0192___     ______220000____________300560000101042_____________ X          
SATCODX103Astra 1 (19.2E)   TMPG20110970000ALQUILER0192___     ______220000____________300570000101042_____________ XX         
SATCODX103Astra 1 (19.2E)   TMPG20107880000ALQUILER0192___     ______220000____________303570000101054_____________ XY         
SATCODX103Astra 1 (19.2E)   TMPG20126330001ALT Send0192___     ______220000____________126430000101113_____________ersuchlauf s
SATCODX103Astra 1 (19.2E)   TMPG20110380000AMC     0192___     ______220000____________304150000101038_____________            
SATCODX103Astra 1 (19.2E)   TMPG20124600001ANIXE SD0192___     ______275000____________007640013300005_____________            
SATCODX103Astra 1 (19.2E)   TMPG20116860000ANTENA 30192___     ______220000____________302120000101032_____________            
SATCODX103Astra 1 (19.2E)   TMPG20116860000ARAGON T0192___     ______220000____________302050000101032_____________V INT       
SATCODX103Astra 1 (19.2E)   TMPG20121100001ARD-TEST0192___     ______275000____________282210000101073_____________-1          
SATCODX103Astra 1 (19.2E)   TMPG20115090000Arirang 0192___     ______220000____________070110000101020_____________TV          
SATCODX103Astra 1 (19.2E)   TMPG20112730001Aristo.T0192___     ______220000____________133110000101005_____________V           
SATCODX103Astra 1 (19.2E)   TMPG20107440001arte    0192___     ______220000____________287240000101051_____________            
SATCODX103Astra 1 (19.2E)   TMPG20124800000AstroTV 0192___     ______275000____________006610013300033_____________            
SATCODX103Astra 1 (19.2E)   TMPG20126920001ATV     0192___     ______220000____________130120000101117_____________            
SATCODX103Astra 1 (19.2E)   TMPG20113180000AXN     0192___     ______220000____________298150000101008_____________            
SATCODX103Astra 1 (19.2E)   TMPG20113180000AXN WHIT0192___     ______220000____________298090000101008_____________E           
SATCODX103Astra 1 (19.2E)   TMPG20116560000B4U Movi0192___     ______220000____________045730000101030_____________es UK       
SATCODX103Astra 1 (19.2E)   TMPG20116560000B4U Musi0192___     ______220000____________045740000101030_____________c UK        
SATCODX103Astra 1 (19.2E)   TMPG20121880001n-tv    0192___     ______275000____________120900000101089_____________            
SATCODX103Astra 1 (19.2E)   TMPG20126330001Babestat0192___     ______220000____________126350000101113_____________ion24       
SATCODX103Astra 1 (19.2E)   TMPG20107580000BABY TV 0192___     ______220000____________298520000101052_____________            
SATCODX103Astra 1 (19.2E)   TMPG20116860000.       0192___     ______220000____________302030000101032_____________            
SATCODX103Astra 1 (19.2E)   TMPG20121680000BARKER C0192___     ______297000____________093110000101088_____________OLLECTIVITES
SATCODX103Astra 1 (19.2E)   TMPG20107580000BARÇA TV0192___     ______220000____________298560000101052_____________            
SATCODX103Astra 1 (19.2E)   TMPG20121480001.       0192___     ______275000____________000700013300007_____________            
SATCODX103Astra 1 (19.2E)   TMPG20108760000BEIN LAL0192___     ______220000____________306150000101060_____________IGA         
SATCODX103Astra 1 (19.2E)   TMPG20107880000M.LCAMPE0192___     ______220000____________303670000101054_____________ON2         
SATCODX103Astra 1 (19.2E)   TMPG20110970000M.LCAMPE0192___     ______220000____________300740000101042_____________ON1         
SATCODX103Astra 1 (19.2E)   TMPG20110970000M.LCAMPE0192___     ______220000____________300790000101042_____________ON3         
SATCODX103Astra 1 (19.2E)   TMPG20110970000M.LCAMPE0192___     ______220000____________300760000101042_____________ON6         
SATCODX103Astra 1 (19.2E)   TMPG20110970000M.LCAMPE0192___     ______220000____________300770000101042_____________ON5         
SATCODX103Astra 1 (19.2E)   TMPG20107880000M.LCAMPE0192___     ______220000____________303650000101054_____________ON4         
SATCODX103Astra 1 (19.2E)   TMPG20107880000M. DEPOR0192___     ______220000____________303660000101054_____________TES6        
SATCODX103Astra 1 (19.2E)   TMPG20110970000M.LCAMPE0192___     ______220000____________300700000101042_____________ON8         
SATCODX103Astra 1 (19.2E)   TMPG20110970000M.LCAMPE0192___     ______220000____________300750000101042_____________ONES        
SATCODX103Astra 1 (19.2E)   TMPG20110970000BEINLALI0192___     ______220000____________300590000101042_____________GA1         
SATCODX103Astra 1 (19.2E)   TMPG20110970000BEINLALI0192___     ______220000____________300800000101042_____________GA2         
SATCODX103Astra 1 (19.2E)   TMPG20110970000BEINLALI0192___     ______220000____________300810000101042_____________GA3         
SATCODX103Astra 1 (19.2E)   TMPG20107880000BEINLALI0192___     ______220000____________303630000101054_____________GA4         
SATCODX103Astra 1 (19.2E)   TMPG20110970000BEINLALI0192___     ______220000____________300730000101042_____________GA5         
SATCODX103Astra 1 (19.2E)   TMPG20110970000BEINLALI0192___     ______220000____________300780000101042_____________GA6         
SATCODX103Astra 1 (19.2E)   TMPG20110970000BEINLALI0192___     ______220000____________300620000101042_____________GA7         
SATCODX103Astra 1 (19.2E)   TMPG20107880000BEINLALI0192___     ______220000____________303520000101054_____________GA8         
SATCODX103Astra 1 (19.2E)   TMPG20125520000Bibel TV0192___     ______220000____________121220000101108_____________            
SATCODX103Astra 1 (19.2E)   TMPG20107580000BOING   0192___     ______220000____________298540000101052_____________            
SATCODX103Astra 1 (19.2E)   TMPG20118360001BR Ferns0192___     ______275000____________281100000101101_____________ehen Nord   
SATCODX103Astra 1 (19.2E)   TMPG20118360001BR Ferns0192___     ______275000____________281070000101101_____________ehen Süd    
SATCODX103Astra 1 (19.2E)   TMPG20125150001Brazzers0192___     ______220000____________041450005301105_____________ TV CZ      
SATCODX103Astra 1 (19.2E)   TMPG20126630001TV1 OOE 0192___     ______220000____________131410000101115_____________            
SATCODX103Astra 1 (19.2E)   TMPG20126330001BunnyClu0192___     ______220000____________126400000101113_____________b24         
SATCODX103Astra 1 (19.2E)   TMPG20108760000CALLE 130192___     ______220000____________306080000101060_____________            
SATCODX103Astra 1 (19.2E)   TMPG20116270000CANAL 240192___     ______220000____________044020000101028_____________ HORAS      
SATCODX103Astra 1 (19.2E)   TMPG20110380000CANAL CO0192___     ______220000____________304140000101038_____________CINA        
SATCODX103Astra 1 (19.2E)   TMPG20108760000CANAL DE0192___     ______220000____________306130000101060_____________CASA        
SATCODX103Astra 1 (19.2E)   TMPG20108760000CANAL OD0192___     ______220000____________306020000101060_____________ISEA        
SATCODX103Astra 1 (19.2E)   TMPG20107880000CANAL OR0192___     ______220000____________303720000101054_____________BE21        
SATCODX103Astra 1 (19.2E)   TMPG20116860000CANAL PA0192___     ______220000____________302070000101032_____________NDA         
SATCODX103Astra 1 (19.2E)   TMPG20111560000CANAL SU0192___     ______220000____________305050000101046_____________R A.        
SATCODX103Astra 1 (19.2E)   TMPG20111560000CAZA Y P0192___     ______220000____________305070000101046_____________ESCA        
SATCODX103Astra 1 (19.2E)   TMPG20115380000CGTN    0192___     ______220000____________069140000101022_____________            
SATCODX103Astra 1 (19.2E)   TMPG20115380000CGTN Doc0192___     ______220000____________069120000101022_____________umentary    
SATCODX103Astra 1 (19.2E)   TMPG20115380000CGTN F  0192___     ______220000____________069130000101022_____________            
SATCODX103Astra 1 (19.2E)   TMPG20121480001Channel20192___     ______275000____________007690013300007_____________1           
SATCODX103Astra 1 (19.2E)   TMPG20125520000Cherie 20192___     ______220000____________121400000101108_____________5           
SATCODX103Astra 1 (19.2E)   TMPG20125520000Cherie 20192___     ______220000____________121410000101108_____________5           
SATCODX103Astra 1 (19.2E)   TMPG20109790000CLAN  TV0192___     ______220000____________306540000101034_____________E           
SATCODX103Astra 1 (19.2E)   TMPG20116860000CLASSICA0192___     ______220000____________302100000101032_____________            
SATCODX103Astra 1 (19.2E)   TMPG20126330001Clipmobi0192___     ______220000____________126410000101113_____________le          
SATCODX103Astra 1 (19.2E)   TMPG20116560000Colors  0192___     ______220000____________045700000101030_____________            
SATCODX103Astra 1 (19.2E)   TMPG20110380000COMEDY C0192___     ______220000____________304080000101038_____________ENTRAL      
SATCODX103Astra 1 (19.2E)   TMPG20121480001Comedy C0192___     ______275000____________000600013300007_____________entral Austr
SATCODX103Astra 1 (19.2E)   TMPG20108470000CONTRATO0192___     ______220000____________301690000101058_____________            
SATCODX103Astra 1 (19.2E)   TMPG20111560000COSMO   0192___     ______220000____________305120000101046_____________            
SATCODX103Astra 1 (19.2E)   TMPG20111560000CRIMEN+I0192___     ______220000____________305140000101046_____________NVES        
SATCODX103Astra 1 (19.2E)   TMPG20109790000CUATRO  0192___     ______220000____________306630000101034_____________            
SATCODX103Astra 1 (19.2E)   TMPG20115090000Cubavisi0192___     ______220000____________070080000101020_____________on Internaci
SATCODX103Astra 1 (19.2E)   TMPG20126330001DateLine0192___     ______220000____________126230000101113_____________            
SATCODX103Astra 1 (19.2E)   TMPG20126330001Deutsche0192___     ______220000____________126150000101113_____________ Girls 24 TV
SATCODX103Astra 1 (19.2E)   TMPG20126330001Deutsche0192___     ______220000____________126040000101113_____________s Musik Fern
SATCODX103Astra 1 (19.2E)   TMPG20112880000Deutschl0192___     ______220000____________042250000101006_____________and Vozrozhd
SATCODX103Astra 1 (19.2E)   TMPG20114210001Die Neue0192___     ______220000____________047130000101015_____________ Zeit TV    
SATCODX103Astra 1 (19.2E)   TMPG20111560000DISCOVER0192___     ______220000____________305110000101046_____________Y           
SATCODX103Astra 1 (19.2E)   TMPG20110380000DISNEY C0192___     ______220000____________304030000101038_____________H.          
SATCODX103Astra 1 (19.2E)   TMPG20113180000DISNEY J0192___     ______220000____________298030000101008_____________R           
SATCODX103Astra 1 (19.2E)   TMPG20111560000DISNEY X0192___     ______220000____________305060000101046_____________D           
SATCODX103Astra 1 (19.2E)   TMPG20107580000DIVINITY0192___     ______220000____________298500000101052_____________            
SATCODX103Astra 1 (19.2E)   TMPG20121480001DMAX Aus0192___     ______275000____________000730013300007_____________tria        
SATCODX103Astra 1 (19.2E)   TMPG20126330001Dreamgir0192___     ______220000____________126180000101113_____________ls24 TV temp
SATCODX103Astra 1 (19.2E)   TMPG20116270000DW Engli0192___     ______220000____________044300000101028_____________sh          
SATCODX103Astra 1 (19.2E)   TMPG20124800000e8 telev0192___     ______275000____________008970013300033_____________ision       
SATCODX103Astra 1 (19.2E)   TMPG20125150001Elevensp0192___     ______220000____________041260005301105_____________orts1       
SATCODX103Astra 1 (19.2E)   TMPG20107580000ENERGY  0192___     ______220000____________298550000101052_____________            
SATCODX103Astra 1 (19.2E)   TMPG20109210001eoTV    0192___     ______220000____________000390013300015_____________            
SATCODX103Astra 1 (19.2E)   TMPG20126330001Eros TV 0192___     ______220000____________126270000101113_____________            
SATCODX103Astra 1 (19.2E)   TMPG20126330001EROTIKA 0192___     ______220000____________126390000101113_____________TV - NEU!   
SATCODX103Astra 1 (19.2E)   TMPG20126330001Erotiksa0192___     ______220000____________126190000101113_____________t24 TV temp 
SATCODX103Astra 1 (19.2E)   TMPG20122260001EURONEWS0192___     ______275000____________312200000101091_____________ FRENCH SD  
SATCODX103Astra 1 (19.2E)   TMPG20107580000EUROSPOR0192___     ______220000____________298570000101052_____________T 1         
SATCODX103Astra 1 (19.2E)   TMPG20116860000EUROSPOR0192___     ______220000____________302220000101032_____________T 2         
SATCODX103Astra 1 (19.2E)   TMPG20124600001EWTN kat0192___     ______275000____________000620013300005_____________holisches TV
SATCODX103Astra 1 (19.2E)   TMPG20109790000FDF     0192___     ______220000____________306520000101034_____________            
SATCODX103Astra 1 (19.2E)   TMPG20126330001Fotohand0192___     ______220000____________126240000101113_____________y           
SATCODX103Astra 1 (19.2E)   TMPG20113180000FOX     0192___     ______220000____________298070000101008_____________            
SATCODX103Astra 1 (19.2E)   TMPG20113180000FOX LIFE0192___     ______220000____________298000000101008_____________            
SATCODX103Astra 1 (19.2E)   TMPG20107580000FOX NEWS0192___     ______220000____________298510000101052_____________            
SATCODX103Astra 1 (19.2E)   TMPG20115380000France 20192___     ______220000____________069050000101022_____________4 (en França
SATCODX103Astra 1 (19.2E)   TMPG20115380000France 20192___     ______220000____________069100000101022_____________4 (in Arabic
SATCODX103Astra 1 (19.2E)   TMPG20115380000France 20192___     ______220000____________069060000101022_____________4 (in Englis
SATCODX103Astra 1 (19.2E)   TMPG20126330001freenet 0192___     ______220000____________126360000101113_____________Shopping    
SATCODX103Astra 1 (19.2E)   TMPG20126330001GayBoys 0192___     ______220000____________126120000101113_____________LIVE        
SATCODX103Astra 1 (19.2E)   TMPG20107730001Genius P0192___     ______220000____________211130000101053_____________lus         
SATCODX103Astra 1 (19.2E)   TMPG20121480001GOD Chan0192___     ______275000____________007740013300007_____________nel         
SATCODX103Astra 1 (19.2E)   TMPG20107580000GOL     0192___     ______220000____________298590000101052_____________            
SATCODX103Astra 1 (19.2E)   TMPG20108470000GUÍA    0192___     ______220000____________301210000101058_____________            
SATCODX103Astra 1 (19.2E)   TMPG20108470000GUÍA FÁC0192___     ______220000____________301980000101058_____________IL          
SATCODX103Astra 1 (19.2E)   TMPG20114210001.       0192___     ______220000____________047020000101015_____________            
SATCODX103Astra 1 (19.2E)   TMPG20126330001health.t0192___     ______220000____________126000000101113_____________v           
SATCODX103Astra 1 (19.2E)   TMPG20126330001Heiss un0192___     ______220000____________126300000101113_____________d Sexy TV   
SATCODX103Astra 1 (19.2E)   TMPG20111560000HISTORIA0192___     ______220000____________305130000101046_____________            
SATCODX103Astra 1 (19.2E)   TMPG20109790000HOLLYWOO0192___     ______220000____________306570000101034_____________D           
SATCODX103Astra 1 (19.2E)   TMPG20124800000HSE24   0192___     ______275000____________000400013300033_____________            
SATCODX103Astra 1 (19.2E)   TMPG20124800000HSE24 TR0192___     ______275000____________000770013300033_____________END         
SATCODX103Astra 1 (19.2E)   TMPG20125150001Hustler 0192___     ______220000____________041090005301105_____________TV CZ       
SATCODX103Astra 1 (19.2E)   TMPG20110680000I24 Fran0192___     ______220000____________313070000101040_____________cis         
SATCODX103Astra 1 (19.2E)   TMPG20113180000IBERALIA0192___     ______220000____________298020000101008_____________ TV         
SATCODX103Astra 1 (19.2E)   TMPG20121480001Immer et0192___     ______275000____________005140013300007_____________was Neues TV
SATCODX103Astra 1 (19.2E)   TMPG20126330001JuweloTV0192___     ______220000____________126160000101113_____________            
SATCODX103Astra 1 (19.2E)   TMPG20120510000Kabel 1 0192___     ______275000____________200030000101082_____________Schweiz     
SATCODX103Astra 1 (19.2E)   TMPG20125450001kabel ei0192___     ______220000____________175020000101107_____________ns          
SATCODX103Astra 1 (19.2E)   TMPG20125450001kabel ei0192___     ______220000____________175090000101107_____________ns Doku     
SATCODX103Astra 1 (19.2E)   TMPG20119540001KiKA    0192___     ______275000____________280080000101079_____________            
SATCODX103Astra 1 (19.2E)   TMPG20126630001L-TV    0192___     ______220000____________131130000101115_____________            
SATCODX103Astra 1 (19.2E)   TMPG20109790000LA 1    0192___     ______220000____________306560000101034_____________            
SATCODX103Astra 1 (19.2E)   TMPG20109790000LA 2    0192___     ______220000____________306580000101034_____________            
SATCODX103Astra 1 (19.2E)   TMPG20109790000LA SEXTA0192___     ______220000____________306550000101034_____________            
SATCODX103Astra 1 (19.2E)   TMPG20108760000LALIGATV0192___     ______220000____________306110000101060_____________ BAR        
SATCODX103Astra 1 (19.2E)   TMPG20107880000LALIGATV0192___     ______220000____________303620000101054_____________BAR1        
SATCODX103Astra 1 (19.2E)   TMPG20126330001MB SAT -0192___     ______220000____________126060000101113_____________ Test 8     
SATCODX103Astra 1 (19.2E)   TMPG20113180000M. ACCIÓ0192___     ______220000____________298040000101008_____________N           
SATCODX103Astra 1 (19.2E)   TMPG20111560000M. Cine 0192___     ______220000____________305180000101046_____________Español     
SATCODX103Astra 1 (19.2E)   TMPG20113180000M. COMED0192___     ______220000____________298050000101008_____________IA          
SATCODX103Astra 1 (19.2E)   TMPG20113180000M. DRAMA0192___     ______220000____________298060000101008_____________            
SATCODX103Astra 1 (19.2E)   TMPG20108760000M. DEPOR0192___     ______220000____________306070000101060_____________TES         
SATCODX103Astra 1 (19.2E)   TMPG20116860000#VAMOS  0192___     ______220000____________302200000101032_____________            
SATCODX103Astra 1 (19.2E)   TMPG20107580000M. DISNE0192___     ______220000____________298530000101052_____________Y           
SATCODX103Astra 1 (19.2E)   TMPG20110380000M. ESTRE0192___     ______220000____________304000000101038_____________NOS         
SATCODX103Astra 1 (19.2E)   TMPG20108760000M. FÚTBO0192___     ______220000____________306060000101060_____________L           
SATCODX103Astra 1 (19.2E)   TMPG20108760000M. GOLF 0192___     ______220000____________306010000101060_____________            
SATCODX103Astra 1 (19.2E)   TMPG20111560000M. DEPOR0192___     ______220000____________305210000101046_____________TES1        
SATCODX103Astra 1 (19.2E)   TMPG20107880000M. SERIE0192___     ______220000____________303580000101054_____________S           
SATCODX103Astra 1 (19.2E)   TMPG20110380000M. SERIE0192___     ______220000____________304100000101038_____________SMANIA      
SATCODX103Astra 1 (19.2E)   TMPG20109790000M.CineDo0192___     ______220000____________306620000101034_____________c&Roll      
SATCODX103Astra 1 (19.2E)   TMPG20107580000M.FORMUL0192___     ______220000____________298600000101052_____________A1          
SATCODX103Astra 1 (19.2E)   TMPG20107880000M.Partid0192___     ______220000____________303640000101054_____________azo         
SATCODX103Astra 1 (19.2E)   TMPG20126330001Maenners0192___     ______220000____________126220000101113_____________ache TV     
SATCODX103Astra 1 (19.2E)   TMPG20116560000MAX     0192___     ______220000____________045820000101030_____________            
SATCODX103Astra 1 (19.2E)   TMPG20121100001MDR Sach0192___     ______275000____________282280000101073_____________sen         
SATCODX103Astra 1 (19.2E)   TMPG20121100001MDR Thür0192___     ______275000____________282300000101073_____________ingen       
SATCODX103Astra 1 (19.2E)   TMPG20126330001MB SAT -0192___     ______220000____________126210000101113_____________ Test1      
SATCODX103Astra 1 (19.2E)   TMPG20126330001MB SAT -0192___     ______220000____________126420000101113_____________ Test7      
SATCODX103Astra 1 (19.2E)   TMPG20124800000MediaSho0192___     ______275000____________008980013300033_____________p- Neuheiten
SATCODX103Astra 1 (19.2E)   TMPG20126920001Mei Musi0192___     ______220000____________130150000101117_____________ TV         
SATCODX103Astra 1 (19.2E)   TMPG20124800000meinTVsh0192___     ______275000____________008990013300033_____________op          
SATCODX103Astra 1 (19.2E)   TMPG20112730001Melodie 0192___     ______220000____________133170000101005_____________TV NEU      
SATCODX103Astra 1 (19.2E)   TMPG20107880000MEZZO   0192___     ______220000____________303610000101054_____________            
SATCODX103Astra 1 (19.2E)   TMPG20126330001Mobile S0192___     ______220000____________126250000101113_____________ex          
SATCODX103Astra 1 (19.2E)   TMPG20107580000MTV ESPA0192___     ______220000____________298580000101052_____________ÑA          
SATCODX103Astra 1 (19.2E)   TMPG20110970000MULTI-X 0192___     ______220000____________300500000101042_____________            
SATCODX103Astra 1 (19.2E)   TMPG20110970000MULTI-X 0192___     ______220000____________300650000101042_____________(1)         
SATCODX103Astra 1 (19.2E)   TMPG20110970000MULTI-X 0192___     ______220000____________300510000101042_____________(2)         
SATCODX103Astra 1 (19.2E)   TMPG20110970000MULTI-X 0192___     ______220000____________300660000101042_____________(3)         
SATCODX103Astra 1 (19.2E)   TMPG20110970000M. FÚTBO0192___     ______220000____________300600000101042_____________L 2         
SATCODX103Astra 1 (19.2E)   TMPG20110970000M. DEPOR0192___     ______220000____________300610000101042_____________TES2        
SATCODX103Astra 1 (19.2E)   TMPG20110970000M. DEPOR0192___     ______220000____________300670000101042_____________TES3        
SATCODX103Astra 1 (19.2E)   TMPG20110970000M. DEPOR0192___     ______220000____________300690000101042_____________TES4        
SATCODX103Astra 1 (19.2E)   TMPG20107880000M. DEPOR0192___     ______220000____________303550000101054_____________TES7        
SATCODX103Astra 1 (19.2E)   TMPG20107880000MULTIDEP0192___     ______220000____________303540000101054_____________ORTE        
SATCODX103Astra 1 (19.2E)   TMPG20107880000MULTIDEP0192___     ______220000____________303710000101054_____________ORTE        
SATCODX103Astra 1 (19.2E)   TMPG20107880000M. FÚTBO0192___     ______220000____________303750000101054_____________L 1         
SATCODX103Astra 1 (19.2E)   TMPG20110970000M. DEPOR0192___     ______220000____________300710000101042_____________TES5        
SATCODX103Astra 1 (19.2E)   TMPG20110970000LaLiga120192___     ______220000____________300720000101042_____________3TVM1       
SATCODX103Astra 1 (19.2E)   TMPG20107880000LaLiga120192___     ______220000____________303740000101054_____________3TVM3       
SATCODX103Astra 1 (19.2E)   TMPG20121480001N24 DOKU0192___     ______275000____________000530013300007_____________ Austria    
SATCODX103Astra 1 (19.2E)   TMPG20124600001N24 DOKU0192___     ______275000____________000480013300005_____________            
SATCODX103Astra 1 (19.2E)   TMPG20109790000NAT GEO 0192___     ______220000____________306800000101034_____________WILD        
SATCODX103Astra 1 (19.2E)   TMPG20108760000NAT GEOG0192___     ______220000____________306050000101060_____________RAPH        
SATCODX103Astra 1 (19.2E)   TMPG20121100001NDR FS H0192___     ______275000____________282250000101073_____________H           
SATCODX103Astra 1 (19.2E)   TMPG20121100001NDR FS N0192___     ______275000____________282260000101073_____________DS          
SATCODX103Astra 1 (19.2E)   TMPG20121100001NDR FS S0192___     ______275000____________282270000101073_____________H           
SATCODX103Astra 1 (19.2E)   TMPG20116860000NEOX    0192___     ______220000____________302060000101032_____________            
SATCODX103Astra 1 (19.2E)   TMPG20112290000NHK WORL0192___     ______220000____________050210000101002_____________D-JPN       
SATCODX103Astra 1 (19.2E)   TMPG20126330001nice    0192___     ______220000____________126340000101113_____________            
SATCODX103Astra 1 (19.2E)   TMPG20107880000NICK JR 0192___     ______220000____________303590000101054_____________            
SATCODX103Astra 1 (19.2E)   TMPG20117390000Nick Jr 0192___     ______275000____________286610000101066_____________            
SATCODX103Astra 1 (19.2E)   TMPG20117390000Nick Jr.0192___     ______275000____________286620000101066_____________            
SATCODX103Astra 1 (19.2E)   TMPG20117390000Nick Jun0192___     ______275000____________286650000101066_____________ior Global  
SATCODX103Astra 1 (19.2E)   TMPG20121480001NICKELOD0192___     ______275000____________000610013300007_____________EON AT      
SATCODX103Astra 1 (19.2E)   TMPG20117390000NICKELOD0192___     ______275000____________286600000101066_____________EON Iberia  
SATCODX103Astra 1 (19.2E)   TMPG20119730000Nicktoon0192___     ______275000____________286820000101078_____________s (S)       
SATCODX103Astra 1 (19.2E)   TMPG20119730000Nicktoon0192___     ______275000____________286830000101078_____________s Turkey    
SATCODX103Astra 1 (19.2E)   TMPG20117390000Nick_Jr.0192___     ______275000____________286680000101066_____________            
SATCODX103Astra 1 (19.2E)   TMPG20111560000NICKELOD0192___     ______220000____________305100000101046_____________EON         
SATCODX103Astra 1 (19.2E)   TMPG20113180000NOVA    0192___     ______220000____________298010000101008_____________            
SATCODX103Astra 1 (19.2E)   TMPG20112730001oe24.TV 0192___     ______220000____________133140000101005_____________HD          
SATCODX103Astra 1 (19.2E)   TMPG20107440001ONE     0192___     ______220000____________287220000101051_____________            
SATCODX103Astra 1 (19.2E)   TMPG20112440001ORF SPOR0192___     ______220000____________132210000101003_____________T+          
SATCODX103Astra 1 (19.2E)   TMPG20126630001ORF III 0192___     ______220000____________131010000101115_____________            
SATCODX103Astra 1 (19.2E)   TMPG20126920001ORF2 B  0192___     ______220000____________130050000101117_____________            
SATCODX103Astra 1 (19.2E)   TMPG20126920001ORF2 K  0192___     ______220000____________130110000101117_____________            
SATCODX103Astra 1 (19.2E)   TMPG20126920001ORF2 N  0192___     ______220000____________130040000101117_____________            
SATCODX103Astra 1 (19.2E)   TMPG20126920001ORF2 O  0192___     ______220000____________130060000101117_____________            
SATCODX103Astra 1 (19.2E)   TMPG20126920001ORF2 S  0192___     ______220000____________130070000101117_____________            
SATCODX103Astra 1 (19.2E)   TMPG20126920001ORF2 St 0192___     ______220000____________130100000101117_____________            
SATCODX103Astra 1 (19.2E)   TMPG20126920001ORF2 T  0192___     ______220000____________130080000101117_____________            
SATCODX103Astra 1 (19.2E)   TMPG20126920001ORF2 V  0192___     ______220000____________130090000101117_____________            
SATCODX103Astra 1 (19.2E)   TMPG20126920001ORF2 W  0192___     ______220000____________130030000101117_____________            
SATCODX103Astra 1 (19.2E)   TMPG20116860000PARAMOUN0192___     ______220000____________302010000101032_____________T           
SATCODX103Astra 1 (19.2E)   TMPG20121480001pearl.tv0192___     ______275000____________007650013300007_____________ Shop       
SATCODX103Astra 1 (19.2E)   TMPG20107440001phoenix 0192___     ______220000____________287250000101051_____________            
SATCODX103Astra 1 (19.2E)   TMPG20108760000PLAYBOY 0192___     ______220000____________306030000101060_____________TV          
SATCODX103Astra 1 (19.2E)   TMPG20108470000PORTADA 0192___     ______220000____________301500000101058_____________            
SATCODX103Astra 1 (19.2E)   TMPG20108470000PORTADA 0192___     ______220000____________301080000101058_____________            
SATCODX103Astra 1 (19.2E)   TMPG20125450001Pro7 MAX0192___     ______220000____________175050000101107_____________X           
SATCODX103Astra 1 (19.2E)   TMPG20125450001ProSiebe0192___     ______220000____________175010000101107_____________n           
SATCODX103Astra 1 (19.2E)   TMPG20120510000ProSiebe0192___     ______275000____________200010000101082_____________n Schweiz   
SATCODX103Astra 1 (19.2E)   TMPG20112730001Starpara0192___     ______220000____________133150000101005_____________dies A      
SATCODX103Astra 1 (19.2E)   TMPG20124600001QVC     0192___     ______275000____________017940013300005_____________            
SATCODX103Astra 1 (19.2E)   TMPG20124600001QVC Styl0192___     ______275000____________000640013300005_____________e           
SATCODX103Astra 1 (19.2E)   TMPG20125520000QVC2    0192___     ______220000____________033940000101108_____________            
SATCODX103Astra 1 (19.2E)   TMPG20116860000R. MADRI0192___     ______220000____________302090000101032_____________D TV        
SATCODX103Astra 1 (19.2E)   TMPG20116120001Russkij 0192___     ______220000____________051260000101027_____________Perwyj R1   
SATCODX103Astra 1 (19.2E)   TMPG20124220001Radio Br0192___     ______275000____________283850000101201_____________emen TV     
SATCODX103Astra 1 (19.2E)   TMPG20108470000RADIOS  0192___     ______220000____________301020000101058_____________            
SATCODX103Astra 1 (19.2E)   TMPG20112880000RAI News0192___     ______220000____________042160000101006_____________ 24         
SATCODX103Astra 1 (19.2E)   TMPG20121100001rbb Berl0192___     ______275000____________282060000101073_____________in          
SATCODX103Astra 1 (19.2E)   TMPG20124800000REGIO TV0192___     ______275000____________000470013300033_____________            
SATCODX103Astra 1 (19.2E)   TMPG20126330001rhein ma0192___     ______220000____________126140000101113_____________in tv       
SATCODX103Astra 1 (19.2E)   TMPG20116560000Rishtey 0192___     ______220000____________045710000101030_____________Europe      
SATCODX103Astra 1 (19.2E)   TMPG20115090000RT Esp  0192___     ______220000____________070130000101020_____________            
SATCODX103Astra 1 (19.2E)   TMPG20113770000RT Esp H0192___     ______220000____________063820000101012_____________D           
SATCODX103Astra 1 (19.2E)   TMPG20113770000RT Esp H0192___     ______220000____________063920000101012_____________D           
SATCODX103Astra 1 (19.2E)   TMPG20113770000RT Franc0192___     ______220000____________063830000101012_____________e HD        
SATCODX103Astra 1 (19.2E)   TMPG20113770000RT HD   0192___     ______220000____________063810000101012_____________            
SATCODX103Astra 1 (19.2E)   TMPG20113910001RTL 2 CH0192___     ______220000____________124000000101013_____________            
SATCODX103Astra 1 (19.2E)   TMPG20122260001RTL CH  0192___     ______275000____________288250000101091_____________            
SATCODX103Astra 1 (19.2E)   TMPG20121880001RTL Baye0192___     ______275000____________120060000101089_____________rn          
SATCODX103Astra 1 (19.2E)   TMPG20121880001RTL HB N0192___     ______275000____________120050000101089_____________DS          
SATCODX103Astra 1 (19.2E)   TMPG20121880001RTL HH S0192___     ______275000____________120090000101089_____________H           
SATCODX103Astra 1 (19.2E)   TMPG20121880001RTL Regi0192___     ______275000____________120040000101089_____________onal NRW    
SATCODX103Astra 1 (19.2E)   TMPG20115380000Russia T0192___     ______220000____________069040000101022_____________oday        
SATCODX103Astra 1 (19.2E)   TMPG20125450001SAT.1   0192___     ______220000____________175000000101107_____________            
SATCODX103Astra 1 (19.2E)   TMPG20125450001SAT.1 Ba0192___     ______220000____________175070000101107_____________yern        
SATCODX103Astra 1 (19.2E)   TMPG20120510000SAT.1 CH0192___     ______275000____________200060000101082_____________            
SATCODX103Astra 1 (19.2E)   TMPG20125450001SAT.1 Go0192___     ______220000____________175040000101107_____________ld          
SATCODX103Astra 1 (19.2E)   TMPG20120510000SAT.1 HH0192___     ______275000____________200080000101082_____________/SH         
SATCODX103Astra 1 (19.2E)   TMPG20125450001SAT.1 NR0192___     ______220000____________175080000101107_____________W           
SATCODX103Astra 1 (19.2E)   TMPG20120510000SAT.1 NS0192___     ______275000____________200090000101082_____________/Bremen     
SATCODX103Astra 1 (19.2E)   TMPG20120510000SAT.1 Rh0192___     ______275000____________200100000101082_____________lPf/Hessen  
SATCODX103Astra 1 (19.2E)   TMPG20112730001SCHWEIZ 0192___     ______220000____________133130000101005_____________5           
SATCODX103Astra 1 (19.2E)   TMPG20112440001Service 0192___     ______220000____________132320000101003_____________13232       
SATCODX103Astra 1 (19.2E)   TMPG20112440001Service 0192___     ______220000____________132330000101003_____________13233       
SATCODX103Astra 1 (19.2E)   TMPG20126630001ServusTV0192___     ______220000____________131100000101115_____________ Deutschland
SATCODX103Astra 1 (19.2E)   TMPG20114210001SES 01  0192___     ______220000____________047000000101015_____________            
SATCODX103Astra 1 (19.2E)   TMPG20114210001SES 02  0192___     ______220000____________047010000101015_____________            
SATCODX103Astra 1 (19.2E)   TMPG20114210001SES 04  0192___     ______220000____________047030000101015_____________            
SATCODX103Astra 1 (19.2E)   TMPG20114210001SES 06  0192___     ______220000____________047050000101015_____________            
SATCODX103Astra 1 (19.2E)   TMPG20114210001SES 07  0192___     ______220000____________047060000101015_____________            
SATCODX103Astra 1 (19.2E)   TMPG20114210001SES 08  0192___     ______220000____________047070000101015_____________            
SATCODX103Astra 1 (19.2E)   TMPG20114210001SES 09  0192___     ______220000____________047080000101015_____________            
SATCODX103Astra 1 (19.2E)   TMPG20114210001SES 10  0192___     ______220000____________047090000101015_____________            
SATCODX103Astra 1 (19.2E)   TMPG20107730001SES 75  0192___     ______220000____________211110000101053_____________            
SATCODX103Astra 1 (19.2E)   TMPG20116560000SET Asia0192___     ______220000____________045810000101030_____________            
SATCODX103Astra 1 (19.2E)   TMPG20126330001SEX-Kont0192___     ______220000____________126260000101113_____________akte        
SATCODX103Astra 1 (19.2E)   TMPG20126330001LEGENDEN0192___     ______220000____________126330000101113_____________ TV         
SATCODX103Astra 1 (19.2E)   TMPG20117200001Sky Cine0192___     ______275000____________000090013300003_____________ma Action   
SATCODX103Astra 1 (19.2E)   TMPG20117580001Sky Cine0192___     ______275000____________000410013300002_____________ma Hits     
SATCODX103Astra 1 (19.2E)   TMPG20120320001Sky Spor0192___     ______275000____________002230013300004_____________t Bundesliga
SATCODX103Astra 1 (19.2E)   TMPG20117200001Sky Spor0192___     ______275000____________002520013300003_____________t Bundesliga
SATCODX103Astra 1 (19.2E)   TMPG20117200001Sky Spor0192___     ______275000____________002620013300003_____________t Bundesliga
SATCODX103Astra 1 (19.2E)   TMPG20117200001Sky Spor0192___     ______275000____________002920013300003_____________t Bundesliga
SATCODX103Astra 1 (19.2E)   TMPG20117200001Sky Spor0192___     ______275000____________003020013300003_____________t Bundesliga
SATCODX103Astra 1 (19.2E)   TMPG20117580001Sky Spor0192___     ______275000____________003320013300002_____________t Bundesliga
SATCODX103Astra 1 (19.2E)   TMPG20109210001Sky Spor0192___     ______220000____________000370013300015_____________t News      
SATCODX103Astra 1 (19.2E)   TMPG20124800000Sonnenkl0192___     ______275000____________000320013300033_____________ar TV       
SATCODX103Astra 1 (19.2E)   TMPG20107730001SOPHIA T0192___     ______220000____________211120000101053_____________V           
SATCODX103Astra 1 (19.2E)   TMPG20124600001Sparhand0192___     ______275000____________006590013300005_____________y TV        
SATCODX103Astra 1 (19.2E)   TMPG20124800000Sparhand0192___     ______275000____________000460013300033_____________y TV 2      
SATCODX103Astra 1 (19.2E)   TMPG20122660001SR Ferns0192___     ______275000____________284860000101093_____________ehen        
SATCODX103Astra 1 (19.2E)   TMPG20121480001Genius e0192___     ______275000____________000540013300007_____________xklusiv     
SATCODX103Astra 1 (19.2E)   TMPG20107880000SUNDANCE0192___     ______220000____________303730000101054_____________ TV         
SATCODX103Astra 1 (19.2E)   TMPG20121100001SWR Fern0192___     ______275000____________282310000101073_____________sehen RP    
SATCODX103Astra 1 (19.2E)   TMPG20108760000SYFY    0192___     ______220000____________306140000101060_____________            
SATCODX103Astra 1 (19.2E)   TMPG20107440001tagessch0192___     ______220000____________287210000101051_____________au24        
SATCODX103Astra 1 (19.2E)   TMPG20110680000TBN Espa0192___     ______220000____________313050000101040_____________na          
SATCODX103Astra 1 (19.2E)   TMPG20110380000TCM     0192___     ______220000____________304070000101038_____________            
SATCODX103Astra 1 (19.2E)   TMPG20109790000TELECINC0192___     ______220000____________306590000101034_____________O           
SATCODX103Astra 1 (19.2E)   TMPG20110380000TELEDEPO0192___     ______220000____________304120000101038_____________RTE         
SATCODX103Astra 1 (19.2E)   TMPG20110680000TELESUR 0192___     ______220000____________313040000101040_____________            
SATCODX103Astra 1 (19.2E)   TMPG20113770000TELESUR 0192___     ______220000____________063800000101012_____________HD          
SATCODX103Astra 1 (19.2E)   TMPG20108470000TEST TÉC0192___     ______220000____________301730000101058_____________NICO        
SATCODX103Astra 1 (19.2E)   TMPG20107440001Test-R  0192___     ______220000____________287260000101051_____________            
SATCODX103Astra 1 (19.2E)   TMPG20108470000TEST_CSD0192___     ______220000____________301740000101058_____________1           
SATCODX103Astra 1 (19.2E)   TMPG20108470000TEST_CSD0192___     ______220000____________301750000101058_____________2           
SATCODX103Astra 1 (19.2E)   TMPG20108470000TEST_CSD0192___     ______220000____________301760000101058_____________3           
SATCODX103Astra 1 (19.2E)   TMPG20108470000TEST_CSD0192___     ______220000____________301770000101058_____________4           
SATCODX103Astra 1 (19.2E)   TMPG20108470000TEST_CSD0192___     ______220000____________301780000101058_____________5           
SATCODX103Astra 1 (19.2E)   TMPG20109790000TNT     0192___     ______220000____________306650000101034_____________            
SATCODX103Astra 1 (19.2E)   TMPG20110970000TOROS   0192___     ______220000____________300640000101042_____________            
SATCODX103Astra 1 (19.2E)   TMPG20126330001Traumfra0192___     ______220000____________126290000101113_____________uen TV      
SATCODX103Astra 1 (19.2E)   TMPG20116120001TRT Turk0192___     ______220000____________051130000101027_____________            
SATCODX103Astra 1 (19.2E)   TMPG20115380000TRT Worl0192___     ______220000____________069180000101022_____________d HD        
SATCODX103Astra 1 (19.2E)   TMPG20110680000TV Recor0192___     ______220000____________313010000101040_____________d SD        
